{
  "_format": "hh-sol-artifact-1",
  "contractName": "EduNFT",
  "sourceName": "contracts/EduNFT.sol",
  "abi": [
    {
      "inputs": [],
      "stateMutability": "nonpayable",
      "type": "constructor"
    },
    {
      "anonymous": false,
      "inputs": [
        {
          "indexed": true,
          "internalType": "address",
          "name": "owner",
          "type": "address"
        },
        {
          "indexed": true,
          "internalType": "address",
          "name": "approved",
          "type": "address"
        },
        {
          "indexed": true,
          "internalType": "uint256",
          "name": "tokenId",
          "type": "uint256"
        }
      ],
      "name": "Approval",
      "type": "event"
    },
    {
      "anonymous": false,
      "inputs": [
        {
          "indexed": true,
          "internalType": "address",
          "name": "owner",
          "type": "address"
        },
        {
          "indexed": true,
          "internalType": "address",
          "name": "operator",
          "type": "address"
        },
        {
          "indexed": false,
          "internalType": "bool",
          "name": "approved",
          "type": "bool"
        }
      ],
      "name": "ApprovalForAll",
      "type": "event"
    },
    {
      "anonymous": false,
      "inputs": [
        {
          "indexed": false,
          "internalType": "uint256",
          "name": "_fromTokenId",
          "type": "uint256"
        },
        {
          "indexed": false,
          "internalType": "uint256",
          "name": "_toTokenId",
          "type": "uint256"
        }
      ],
      "name": "BatchMetadataUpdate",
      "type": "event"
    },
    {
      "anonymous": false,
      "inputs": [
        {
          "indexed": false,
          "internalType": "uint256",
          "name": "_tokenId",
          "type": "uint256"
        }
      ],
      "name": "MetadataUpdate",
      "type": "event"
    },
    {
      "anonymous": false,
      "inputs": [
        {
          "indexed": true,
          "internalType": "address",
          "name": "to",
          "type": "address"
        },
        {
          "indexed": true,
          "internalType": "uint256",
          "name": "tokenId",
          "type": "uint256"
        },
        {
          "indexed": false,
          "internalType": "uint256",
          "name": "loanAmount",
          "type": "uint256"
        }
      ],
      "name": "NFTMinted",
      "type": "event"
    },
    {
      "anonymous": false,
      "inputs": [
        {
          "indexed": true,
          "internalType": "address",
          "name": "previousOwner",
          "type": "address"
        },
        {
          "indexed": true,
          "internalType": "address",
          "name": "newOwner",
          "type": "address"
        }
      ],
      "name": "OwnershipTransferred",
      "type": "event"
    },
    {
      "anonymous": false,
      "inputs": [
        {
          "indexed": true,
          "internalType": "address",
          "name": "payer",
          "type": "address"
        },
        {
          "indexed": true,
          "internalType": "uint256",
          "name": "tokenId",
          "type": "uint256"
        },
        {
          "indexed": false,
          "internalType": "uint256",
          "name": "amount",
          "type": "uint256"
        },
        {
          "indexed": false,
          "internalType": "bool",
          "name": "fullyRepaid",
          "type": "bool"
        }
      ],
      "name": "RepaymentUpdated",
      "type": "event"
    },
    {
      "anonymous": false,
      "inputs": [
        {
          "indexed": true,
          "internalType": "address",
          "name": "from",
          "type": "address"
        },
        {
          "indexed": true,
          "internalType": "address",
          "name": "to",
          "type": "address"
        },
        {
          "indexed": true,
          "internalType": "uint256",
          "name": "tokenId",
          "type": "uint256"
        }
      ],
      "name": "Transfer",
      "type": "event"
    },
    {
      "inputs": [
        {
          "internalType": "address",
          "name": "to",
          "type": "address"
        },
        {
          "internalType": "uint256",
          "name": "tokenId",
          "type": "uint256"
        }
      ],
      "name": "approve",
      "outputs": [],
      "stateMutability": "nonpayable",
      "type": "function"
    },
    {
      "inputs": [
        {
          "internalType": "address",
          "name": "owner",
          "type": "address"
        }
      ],
      "name": "balanceOf",
      "outputs": [
        {
          "internalType": "uint256",
          "name": "",
          "type": "uint256"
        }
      ],
      "stateMutability": "view",
      "type": "function"
    },
    {
      "inputs": [
        {
          "internalType": "uint256",
          "name": "tokenId",
          "type": "uint256"
        }
      ],
      "name": "getApproved",
      "outputs": [
        {
          "internalType": "address",
          "name": "",
          "type": "address"
        }
      ],
      "stateMutability": "view",
      "type": "function"
    },
    {
      "inputs": [
        {
          "internalType": "uint256",
          "name": "tokenId",
          "type": "uint256"
        }
      ],
      "name": "getNFTDetails",
      "outputs": [
        {
          "internalType": "address",
          "name": "owner",
          "type": "address"
        },
        {
          "internalType": "uint256",
          "name": "loanAmount",
          "type": "uint256"
        },
        {
          "internalType": "uint256",
          "name": "repaid",
          "type": "uint256"
        },
        {
          "internalType": "bool",
          "name": "fullyRepaid",
          "type": "bool"
        }
      ],
      "stateMutability": "view",
      "type": "function"
    },
    {
      "inputs": [
        {
          "internalType": "address",
          "name": "user",
          "type": "address"
        }
      ],
      "name": "getUserNFTs",
      "outputs": [
        {
          "internalType": "uint256[]",
          "name": "",
          "type": "uint256[]"
        }
      ],
      "stateMutability": "view",
      "type": "function"
    },
    {
      "inputs": [
        {
          "internalType": "address",
          "name": "owner",
          "type": "address"
        },
        {
          "internalType": "address",
          "name": "operator",
          "type": "address"
        }
      ],
      "name": "isApprovedForAll",
      "outputs": [
        {
          "internalType": "bool",
          "name": "",
          "type": "bool"
        }
      ],
      "stateMutability": "view",
      "type": "function"
    },
    {
      "inputs": [
        {
          "internalType": "address",
          "name": "to",
          "type": "address"
        },
        {
          "internalType": "string",
          "name": "tokenURI",
          "type": "string"
        },
        {
          "internalType": "uint256",
          "name": "loanAmount",
          "type": "uint256"
        }
      ],
      "name": "mintNFT",
      "outputs": [
        {
          "internalType": "uint256",
          "name": "",
          "type": "uint256"
        }
      ],
      "stateMutability": "nonpayable",
      "type": "function"
    },
    {
      "inputs": [],
      "name": "name",
      "outputs": [
        {
          "internalType": "string",
          "name": "",
          "type": "string"
        }
      ],
      "stateMutability": "view",
      "type": "function"
    },
    {
      "inputs": [],
      "name": "nextTokenId",
      "outputs": [
        {
          "internalType": "uint256",
          "name": "",
          "type": "uint256"
        }
      ],
      "stateMutability": "view",
      "type": "function"
    },
    {
      "inputs": [
        {
          "internalType": "uint256",
          "name": "",
          "type": "uint256"
        }
      ],
      "name": "nftData",
      "outputs": [
        {
          "internalType": "address",
          "name": "owner",
          "type": "address"
        },
        {
          "internalType": "uint256",
          "name": "loanAmount",
          "type": "uint256"
        },
        {
          "internalType": "uint256",
          "name": "repaymentDone",
          "type": "uint256"
        },
        {
          "internalType": "bool",
          "name": "fullyRepaid",
          "type": "bool"
        }
      ],
      "stateMutability": "view",
      "type": "function"
    },
    {
      "inputs": [],
      "name": "owner",
      "outputs": [
        {
          "internalType": "address",
          "name": "",
          "type": "address"
        }
      ],
      "stateMutability": "view",
      "type": "function"
    },
    {
      "inputs": [
        {
          "internalType": "uint256",
          "name": "tokenId",
          "type": "uint256"
        }
      ],
      "name": "ownerOf",
      "outputs": [
        {
          "internalType": "address",
          "name": "",
          "type": "address"
        }
      ],
      "stateMutability": "view",
      "type": "function"
    },
    {
      "inputs": [],
      "name": "renounceOwnership",
      "outputs": [],
      "stateMutability": "nonpayable",
      "type": "function"
    },
    {
      "inputs": [
        {
          "internalType": "uint256",
          "name": "tokenId",
          "type": "uint256"
        }
      ],
      "name": "repay",
      "outputs": [],
      "stateMutability": "payable",
      "type": "function"
    },
    {
      "inputs": [
        {
          "internalType": "address",
          "name": "from",
          "type": "address"
        },
        {
          "internalType": "address",
          "name": "to",
          "type": "address"
        },
        {
          "internalType": "uint256",
          "name": "tokenId",
          "type": "uint256"
        }
      ],
      "name": "safeTransferFrom",
      "outputs": [],
      "stateMutability": "nonpayable",
      "type": "function"
    },
    {
      "inputs": [
        {
          "internalType": "address",
          "name": "from",
          "type": "address"
        },
        {
          "internalType": "address",
          "name": "to",
          "type": "address"
        },
        {
          "internalType": "uint256",
          "name": "tokenId",
          "type": "uint256"
        },
        {
          "internalType": "bytes",
          "name": "data",
          "type": "bytes"
        }
      ],
      "name": "safeTransferFrom",
      "outputs": [],
      "stateMutability": "nonpayable",
      "type": "function"
    },
    {
      "inputs": [
        {
          "internalType": "address",
          "name": "operator",
          "type": "address"
        },
        {
          "internalType": "bool",
          "name": "approved",
          "type": "bool"
        }
      ],
      "name": "setApprovalForAll",
      "outputs": [],
      "stateMutability": "nonpayable",
      "type": "function"
    },
    {
      "inputs": [
        {
          "internalType": "bytes4",
          "name": "interfaceId",
          "type": "bytes4"
        }
      ],
      "name": "supportsInterface",
      "outputs": [
        {
          "internalType": "bool",
          "name": "",
          "type": "bool"
        }
      ],
      "stateMutability": "view",
      "type": "function"
    },
    {
      "inputs": [],
      "name": "symbol",
      "outputs": [
        {
          "internalType": "string",
          "name": "",
          "type": "string"
        }
      ],
      "stateMutability": "view",
      "type": "function"
    },
    {
      "inputs": [
        {
          "internalType": "uint256",
          "name": "tokenId",
          "type": "uint256"
        }
      ],
      "name": "tokenURI",
      "outputs": [
        {
          "internalType": "string",
          "name": "",
          "type": "string"
        }
      ],
      "stateMutability": "view",
      "type": "function"
    },
    {
      "inputs": [
        {
          "internalType": "address",
          "name": "from",
          "type": "address"
        },
        {
          "internalType": "address",
          "name": "to",
          "type": "address"
        },
        {
          "internalType": "uint256",
          "name": "tokenId",
          "type": "uint256"
        }
      ],
      "name": "transferFrom",
      "outputs": [],
      "stateMutability": "nonpayable",
      "type": "function"
    },
    {
      "inputs": [
        {
          "internalType": "address",
          "name": "newOwner",
          "type": "address"
        }
      ],
      "name": "transferOwnership",
      "outputs": [],
      "stateMutability": "nonpayable",
      "type": "function"
    },
    {
      "inputs": [
        {
          "internalType": "address",
          "name": "",
          "type": "address"
        },
        {
          "internalType": "uint256",
          "name": "",
          "type": "uint256"
        }
      ],
      "name": "userNFTs",
      "outputs": [
        {
          "internalType": "uint256",
          "name": "",
          "type": "uint256"
        }
      ],
      "stateMutability": "view",
      "type": "function"
    },
    {
      "inputs": [
        {
          "internalType": "address payable",
          "name": "to",
          "type": "address"
        }
      ],
      "name": "withdraw",
      "outputs": [],
      "stateMutability": "nonpayable",
      "type": "function"
    }
  ],
  "bytecode": "0x608060405234801561001057600080fd5b506040518060400160405280600d81526020017f45647546756e64696e674e4654000000000000000000000000000000000000008152506040518060400160405280600781526020017f4544552d4e465400000000000000000000000000000000000000000000000000815250816000908161008c91906103e6565b50806001908161009c91906103e6565b5050506100bb6100b06100c860201b60201c565b6100d060201b60201c565b60016008819055506104b8565b600033905090565b6000600760009054906101000a900473ffffffffffffffffffffffffffffffffffffffff16905081600760006101000a81548173ffffffffffffffffffffffffffffffffffffffff021916908373ffffffffffffffffffffffffffffffffffffffff1602179055508173ffffffffffffffffffffffffffffffffffffffff168173ffffffffffffffffffffffffffffffffffffffff167f8be0079c531659141344cd1fd0a4f28419497f9722a3daafe3b4186f6b6457e060405160405180910390a35050565b600081519050919050565b7f4e487b7100000000000000000000000000000000000000000000000000000000600052604160045260246000fd5b7f4e487b7100000000000000000000000000000000000000000000000000000000600052602260045260246000fd5b6000600282049050600182168061021757607f821691505b60208210810361022a576102296101d0565b5b50919050565b60008190508160005260206000209050919050565b60006020601f8301049050919050565b600082821b905092915050565b6000600883026102927fffffffffffffffffffffffffffffffffffffffffffffffffffffffffffffffff82610255565b61029c8683610255565b95508019841693508086168417925050509392505050565b6000819050919050565b6000819050919050565b60006102e36102de6102d9846102b4565b6102be565b6102b4565b9050919050565b6000819050919050565b6102fd836102c8565b610311610309826102ea565b848454610262565b825550505050565b600090565b610326610319565b6103318184846102f4565b505050565b5b818110156103555761034a60008261031e565b600181019050610337565b5050565b601f82111561039a5761036b81610230565b61037484610245565b81016020851015610383578190505b61039761038f85610245565b830182610336565b50505b505050565b600082821c905092915050565b60006103bd6000198460080261039f565b1980831691505092915050565b60006103d683836103ac565b9150826002028217905092915050565b6103ef82610196565b67ffffffffffffffff811115610408576104076101a1565b5b61041282546101ff565b61041d828285610359565b600060209050601f831160018114610450576000841561043e578287015190505b61044885826103ca565b8655506104b0565b601f19841661045e86610230565b60005b8281101561048657848901518255600182019150602085019450602081019050610461565b868310156104a3578489015161049f601f8916826103ac565b8355505b6001600288020188555050505b505050505050565b613a69806104c76000396000f3fe60806040526004361061014b5760003560e01c806370a08231116100b657806395d89b411161006f57806395d89b41146104d3578063a22cb465146104fe578063b88d4fde14610527578063c87b56dd14610550578063e985e9c51461058d578063f2fde38b146105ca5761014b565b806370a08231146103a9578063715018a6146103e657806375794a3c146103fd57806382260f35146104285780638c210975146104685780638da5cb5b146104a85761014b565b8063291c73c311610108578063291c73c314610284578063371fd8e6146102c157806342842e0e146102dd57806351cff8d91461030657806352de4ee51461032f5780636352211e1461036c5761014b565b806301ffc9a71461015057806306fdde031461018d578063081812fc146101b857806308598df0146101f5578063095ea7b31461023257806323b872dd1461025b575b600080fd5b34801561015c57600080fd5b506101776004803603810190610172919061249f565b6105f3565b60405161018491906124e7565b60405180910390f35b34801561019957600080fd5b506101a2610654565b6040516101af9190612592565b60405180910390f35b3480156101c457600080fd5b506101df60048036038101906101da91906125ea565b6106e6565b6040516101ec9190612658565b60405180910390f35b34801561020157600080fd5b5061021c600480360381019061021791906127d4565b61072c565b6040516102299190612852565b60405180910390f35b34801561023e57600080fd5b506102596004803603810190610254919061286d565b6108f5565b005b34801561026757600080fd5b50610282600480360381019061027d91906128ad565b610a0c565b005b34801561029057600080fd5b506102ab60048036038101906102a6919061286d565b610a6c565b6040516102b89190612852565b60405180910390f35b6102db60048036038101906102d691906125ea565b610a9d565b005b3480156102e957600080fd5b5061030460048036038101906102ff91906128ad565b610c7e565b005b34801561031257600080fd5b5061032d6004803603810190610328919061293e565b610c9e565b005b34801561033b57600080fd5b506103566004803603810190610351919061296b565b610d33565b6040516103639190612a56565b60405180910390f35b34801561037857600080fd5b50610393600480360381019061038e91906125ea565b610dca565b6040516103a09190612658565b60405180910390f35b3480156103b557600080fd5b506103d060048036038101906103cb919061296b565b610e50565b6040516103dd9190612852565b60405180910390f35b3480156103f257600080fd5b506103fb610f07565b005b34801561040957600080fd5b50610412610f1b565b60405161041f9190612852565b60405180910390f35b34801561043457600080fd5b5061044f600480360381019061044a91906125ea565b610f21565b60405161045f9493929190612a78565b60405180910390f35b34801561047457600080fd5b5061048f600480360381019061048a91906125ea565b610ff2565b60405161049f9493929190612a78565b60405180910390f35b3480156104b457600080fd5b506104bd61104f565b6040516104ca9190612658565b60405180910390f35b3480156104df57600080fd5b506104e8611079565b6040516104f59190612592565b60405180910390f35b34801561050a57600080fd5b5061052560048036038101906105209190612ae9565b61110b565b005b34801561053357600080fd5b5061054e60048036038101906105499190612bca565b611121565b005b34801561055c57600080fd5b50610577600480360381019061057291906125ea565b611183565b6040516105849190612592565b60405180910390f35b34801561059957600080fd5b506105b460048036038101906105af9190612c4d565b611295565b6040516105c191906124e7565b60405180910390f35b3480156105d657600080fd5b506105f160048036038101906105ec919061296b565b611329565b005b6000634906490660e01b7bffffffffffffffffffffffffffffffffffffffffffffffffffffffff1916827bffffffffffffffffffffffffffffffffffffffffffffffffffffffff1916148061064d575061064c826113ac565b5b9050919050565b60606000805461066390612cbc565b80601f016020809104026020016040519081016040528092919081815260200182805461068f90612cbc565b80156106dc5780601f106106b1576101008083540402835291602001916106dc565b820191906000526020600020905b8154815290600101906020018083116106bf57829003601f168201915b5050505050905090565b60006106f18261148e565b6004600083815260200190815260200160002060009054906101000a900473ffffffffffffffffffffffffffffffffffffffff169050919050565b60006107366114d9565b600060085490506008600081548092919061075090612d1c565b919050555061075f8582611557565b6107698185611774565b60405180608001604052808673ffffffffffffffffffffffffffffffffffffffff16815260200184815260200160008152602001600015158152506009600083815260200190815260200160002060008201518160000160006101000a81548173ffffffffffffffffffffffffffffffffffffffff021916908373ffffffffffffffffffffffffffffffffffffffff160217905550602082015181600101556040820151816002015560608201518160030160006101000a81548160ff021916908315150217905550905050600a60008673ffffffffffffffffffffffffffffffffffffffff1673ffffffffffffffffffffffffffffffffffffffff168152602001908152602001600020819080600181540180825580915050600190039060005260206000200160009091909190915055808573ffffffffffffffffffffffffffffffffffffffff167f3a8a89b59a31c39a36febecb987e0657ab7b7c73b60ebacb44dcb9886c2d5c8a856040516108e29190612852565b60405180910390a3809150509392505050565b600061090082610dca565b90508073ffffffffffffffffffffffffffffffffffffffff168373ffffffffffffffffffffffffffffffffffffffff1603610970576040517f08c379a000000000000000000000000000000000000000000000000000000000815260040161096790612dd6565b60405180910390fd5b8073ffffffffffffffffffffffffffffffffffffffff1661098f611818565b73ffffffffffffffffffffffffffffffffffffffff1614806109be57506109bd816109b8611818565b611295565b5b6109fd576040517f08c379a00000000000000000000000000000000000000000000000000000000081526004016109f490612e68565b60405180910390fd5b610a078383611820565b505050565b610a1d610a17611818565b826118d9565b610a5c576040517f08c379a0000000000000000000000000000000000000000000000000000000008152600401610a5390612efa565b60405180910390fd5b610a6783838361196e565b505050565b600a6020528160005260406000208181548110610a8857600080fd5b90600052602060002001600091509150505481565b3373ffffffffffffffffffffffffffffffffffffffff16610abd82610dca565b73ffffffffffffffffffffffffffffffffffffffff1614610b13576040517f08c379a0000000000000000000000000000000000000000000000000000000008152600401610b0a90612f66565b60405180910390fd5b6009600082815260200190815260200160002060030160009054906101000a900460ff1615610b77576040517f08c379a0000000000000000000000000000000000000000000000000000000008152600401610b6e90612fd2565b60405180910390fd5b34600960008381526020019081526020016000206002016000828254610b9d9190612ff2565b925050819055506009600082815260200190815260200160002060010154600960008381526020019081526020016000206002015410610c075760016009600083815260200190815260200160002060030160006101000a81548160ff0219169083151502179055505b803373ffffffffffffffffffffffffffffffffffffffff167f9832f938a6985d0cb44ce5ee2e671500f50c1f4cee945883b5804b52136fcdf4346009600086815260200190815260200160002060030160009054906101000a900460ff16604051610c73929190613026565b60405180910390a350565b610c9983838360405180602001604052806000815250611121565b505050565b610ca66114d9565b60004711610ce9576040517f08c379a0000000000000000000000000000000000000000000000000000000008152600401610ce09061309b565b60405180910390fd5b8073ffffffffffffffffffffffffffffffffffffffff166108fc479081150290604051600060405180830381858888f19350505050158015610d2f573d6000803e3d6000fd5b5050565b6060600a60008373ffffffffffffffffffffffffffffffffffffffff1673ffffffffffffffffffffffffffffffffffffffff168152602001908152602001600020805480602002602001604051908101604052809291908181526020018280548015610dbe57602002820191906000526020600020905b815481526020019060010190808311610daa575b50505050509050919050565b600080610dd683611c67565b9050600073ffffffffffffffffffffffffffffffffffffffff168173ffffffffffffffffffffffffffffffffffffffff1603610e47576040517f08c379a0000000000000000000000000000000000000000000000000000000008152600401610e3e90613107565b60405180910390fd5b80915050919050565b60008073ffffffffffffffffffffffffffffffffffffffff168273ffffffffffffffffffffffffffffffffffffffff1603610ec0576040517f08c379a0000000000000000000000000000000000000000000000000000000008152600401610eb790613199565b60405180910390fd5b600360008373ffffffffffffffffffffffffffffffffffffffff1673ffffffffffffffffffffffffffffffffffffffff168152602001908152602001600020549050919050565b610f0f6114d9565b610f196000611ca4565b565b60085481565b6000806000806000600960008781526020019081526020016000206040518060800160405290816000820160009054906101000a900473ffffffffffffffffffffffffffffffffffffffff1673ffffffffffffffffffffffffffffffffffffffff1673ffffffffffffffffffffffffffffffffffffffff16815260200160018201548152602001600282015481526020016003820160009054906101000a900460ff161515151581525050905080600001518160200151826040015183606001519450945094509450509193509193565b60096020528060005260406000206000915090508060000160009054906101000a900473ffffffffffffffffffffffffffffffffffffffff16908060010154908060020154908060030160009054906101000a900460ff16905084565b6000600760009054906101000a900473ffffffffffffffffffffffffffffffffffffffff16905090565b60606001805461108890612cbc565b80601f01602080910402602001604051908101604052809291908181526020018280546110b490612cbc565b80156111015780601f106110d657610100808354040283529160200191611101565b820191906000526020600020905b8154815290600101906020018083116110e457829003601f168201915b5050505050905090565b61111d611116611818565b8383611d6a565b5050565b61113261112c611818565b836118d9565b611171576040517f08c379a000000000000000000000000000000000000000000000000000000000815260040161116890612efa565b60405180910390fd5b61117d84848484611ed6565b50505050565b606061118e8261148e565b60006006600084815260200190815260200160002080546111ae90612cbc565b80601f01602080910402602001604051908101604052809291908181526020018280546111da90612cbc565b80156112275780601f106111fc57610100808354040283529160200191611227565b820191906000526020600020905b81548152906001019060200180831161120a57829003601f168201915b505050505090506000611238611f32565b9050600081510361124d578192505050611290565b60008251111561128257808260405160200161126a9291906131f5565b60405160208183030381529060405292505050611290565b61128b84611f49565b925050505b919050565b6000600560008473ffffffffffffffffffffffffffffffffffffffff1673ffffffffffffffffffffffffffffffffffffffff16815260200190815260200160002060008373ffffffffffffffffffffffffffffffffffffffff1673ffffffffffffffffffffffffffffffffffffffff16815260200190815260200160002060009054906101000a900460ff16905092915050565b6113316114d9565b600073ffffffffffffffffffffffffffffffffffffffff168173ffffffffffffffffffffffffffffffffffffffff16036113a0576040517f08c379a00000000000000000000000000000000000000000000000000000000081526004016113979061328b565b60405180910390fd5b6113a981611ca4565b50565b60007f80ac58cd000000000000000000000000000000000000000000000000000000007bffffffffffffffffffffffffffffffffffffffffffffffffffffffff1916827bffffffffffffffffffffffffffffffffffffffffffffffffffffffff1916148061147757507f5b5e139f000000000000000000000000000000000000000000000000000000007bffffffffffffffffffffffffffffffffffffffffffffffffffffffff1916827bffffffffffffffffffffffffffffffffffffffffffffffffffffffff1916145b80611487575061148682611fb1565b5b9050919050565b6114978161201b565b6114d6576040517f08c379a00000000000000000000000000000000000000000000000000000000081526004016114cd90613107565b60405180910390fd5b50565b6114e1611818565b73ffffffffffffffffffffffffffffffffffffffff166114ff61104f565b73ffffffffffffffffffffffffffffffffffffffff1614611555576040517f08c379a000000000000000000000000000000000000000000000000000000000815260040161154c906132f7565b60405180910390fd5b565b600073ffffffffffffffffffffffffffffffffffffffff168273ffffffffffffffffffffffffffffffffffffffff16036115c6576040517f08c379a00000000000000000000000000000000000000000000000000000000081526004016115bd90613363565b60405180910390fd5b6115cf8161201b565b1561160f576040517f08c379a0000000000000000000000000000000000000000000000000000000008152600401611606906133cf565b60405180910390fd5b61161d60008383600161205c565b6116268161201b565b15611666576040517f08c379a000000000000000000000000000000000000000000000000000000000815260040161165d906133cf565b60405180910390fd5b6001600360008473ffffffffffffffffffffffffffffffffffffffff1673ffffffffffffffffffffffffffffffffffffffff16815260200190815260200160002060008282540192505081905550816002600083815260200190815260200160002060006101000a81548173ffffffffffffffffffffffffffffffffffffffff021916908373ffffffffffffffffffffffffffffffffffffffff160217905550808273ffffffffffffffffffffffffffffffffffffffff16600073ffffffffffffffffffffffffffffffffffffffff167fddf252ad1be2c89b69c2b068fc378daa952ba7f163c4a11628f55a4df523b3ef60405160405180910390a4611770600083836001612062565b5050565b61177d8261201b565b6117bc576040517f08c379a00000000000000000000000000000000000000000000000000000000081526004016117b390613461565b60405180910390fd5b806006600084815260200190815260200160002090816117dc919061362d565b507ff8e1a15aba9398e019f0b49df1a4fde98ee17ae345cb5f6b5e2c27f5033e8ce78260405161180c9190612852565b60405180910390a15050565b600033905090565b816004600083815260200190815260200160002060006101000a81548173ffffffffffffffffffffffffffffffffffffffff021916908373ffffffffffffffffffffffffffffffffffffffff160217905550808273ffffffffffffffffffffffffffffffffffffffff1661189383610dca565b73ffffffffffffffffffffffffffffffffffffffff167f8c5be1e5ebec7d5bd14f71427d1e84f3dd0314c0f7b2291e5b200ac8c7c3b92560405160405180910390a45050565b6000806118e583610dca565b90508073ffffffffffffffffffffffffffffffffffffffff168473ffffffffffffffffffffffffffffffffffffffff16148061192757506119268185611295565b5b8061196557508373ffffffffffffffffffffffffffffffffffffffff1661194d846106e6565b73ffffffffffffffffffffffffffffffffffffffff16145b91505092915050565b8273ffffffffffffffffffffffffffffffffffffffff1661198e82610dca565b73ffffffffffffffffffffffffffffffffffffffff16146119e4576040517f08c379a00000000000000000000000000000000000000000000000000000000081526004016119db90613771565b60405180910390fd5b600073ffffffffffffffffffffffffffffffffffffffff168273ffffffffffffffffffffffffffffffffffffffff1603611a53576040517f08c379a0000000000000000000000000000000000000000000000000000000008152600401611a4a90613803565b60405180910390fd5b611a60838383600161205c565b8273ffffffffffffffffffffffffffffffffffffffff16611a8082610dca565b73ffffffffffffffffffffffffffffffffffffffff1614611ad6576040517f08c379a0000000000000000000000000000000000000000000000000000000008152600401611acd90613771565b60405180910390fd5b6004600082815260200190815260200160002060006101000a81549073ffffffffffffffffffffffffffffffffffffffff02191690556001600360008573ffffffffffffffffffffffffffffffffffffffff1673ffffffffffffffffffffffffffffffffffffffff168152602001908152602001600020600082825403925050819055506001600360008473ffffffffffffffffffffffffffffffffffffffff1673ffffffffffffffffffffffffffffffffffffffff16815260200190815260200160002060008282540192505081905550816002600083815260200190815260200160002060006101000a81548173ffffffffffffffffffffffffffffffffffffffff021916908373ffffffffffffffffffffffffffffffffffffffff160217905550808273ffffffffffffffffffffffffffffffffffffffff168473ffffffffffffffffffffffffffffffffffffffff167fddf252ad1be2c89b69c2b068fc378daa952ba7f163c4a11628f55a4df523b3ef60405160405180910390a4611c628383836001612062565b505050565b60006002600083815260200190815260200160002060009054906101000a900473ffffffffffffffffffffffffffffffffffffffff169050919050565b6000600760009054906101000a900473ffffffffffffffffffffffffffffffffffffffff16905081600760006101000a81548173ffffffffffffffffffffffffffffffffffffffff021916908373ffffffffffffffffffffffffffffffffffffffff1602179055508173ffffffffffffffffffffffffffffffffffffffff168173ffffffffffffffffffffffffffffffffffffffff167f8be0079c531659141344cd1fd0a4f28419497f9722a3daafe3b4186f6b6457e060405160405180910390a35050565b8173ffffffffffffffffffffffffffffffffffffffff168373ffffffffffffffffffffffffffffffffffffffff1603611dd8576040517f08c379a0000000000000000000000000000000000000000000000000000000008152600401611dcf9061386f565b60405180910390fd5b80600560008573ffffffffffffffffffffffffffffffffffffffff1673ffffffffffffffffffffffffffffffffffffffff16815260200190815260200160002060008473ffffffffffffffffffffffffffffffffffffffff1673ffffffffffffffffffffffffffffffffffffffff16815260200190815260200160002060006101000a81548160ff0219169083151502179055508173ffffffffffffffffffffffffffffffffffffffff168373ffffffffffffffffffffffffffffffffffffffff167f17307eab39ab6107e8899845ad3d59bd9653f200f220920489ca2b5937696c3183604051611ec991906124e7565b60405180910390a3505050565b611ee184848461196e565b611eed84848484612068565b611f2c576040517f08c379a0000000000000000000000000000000000000000000000000000000008152600401611f2390613901565b60405180910390fd5b50505050565b606060405180602001604052806000815250905090565b6060611f548261148e565b6000611f5e611f32565b90506000815111611f7e5760405180602001604052806000815250611fa9565b80611f88846121ef565b604051602001611f999291906131f5565b6040516020818303038152906040525b915050919050565b60007f01ffc9a7000000000000000000000000000000000000000000000000000000007bffffffffffffffffffffffffffffffffffffffffffffffffffffffff1916827bffffffffffffffffffffffffffffffffffffffffffffffffffffffff1916149050919050565b60008073ffffffffffffffffffffffffffffffffffffffff1661203d83611c67565b73ffffffffffffffffffffffffffffffffffffffff1614159050919050565b50505050565b50505050565b60006120898473ffffffffffffffffffffffffffffffffffffffff166122bd565b156121e2578373ffffffffffffffffffffffffffffffffffffffff1663150b7a026120b2611818565b8786866040518563ffffffff1660e01b81526004016120d49493929190613976565b6020604051808303816000875af192505050801561211057506040513d601f19601f8201168201806040525081019061210d91906139d7565b60015b612192573d8060008114612140576040519150601f19603f3d011682016040523d82523d6000602084013e612145565b606091505b50600081510361218a576040517f08c379a000000000000000000000000000000000000000000000000000000000815260040161218190613901565b60405180910390fd5b805181602001fd5b63150b7a0260e01b7bffffffffffffffffffffffffffffffffffffffffffffffffffffffff1916817bffffffffffffffffffffffffffffffffffffffffffffffffffffffff1916149150506121e7565b600190505b949350505050565b6060600060016121fe846122e0565b01905060008167ffffffffffffffff81111561221d5761221c6126a9565b5b6040519080825280601f01601f19166020018201604052801561224f5781602001600182028036833780820191505090505b509050600082602001820190505b6001156122b2578080600190039150507f3031323334353637383961626364656600000000000000000000000000000000600a86061a8153600a85816122a6576122a5613a04565b5b0494506000850361225d575b819350505050919050565b6000808273ffffffffffffffffffffffffffffffffffffffff163b119050919050565b600080600090507a184f03e93ff9f4daa797ed6e38ed64bf6a1f010000000000000000831061233e577a184f03e93ff9f4daa797ed6e38ed64bf6a1f010000000000000000838161233457612333613a04565b5b0492506040810190505b6d04ee2d6d415b85acef8100000000831061237b576d04ee2d6d415b85acef8100000000838161237157612370613a04565b5b0492506020810190505b662386f26fc1000083106123aa57662386f26fc1000083816123a05761239f613a04565b5b0492506010810190505b6305f5e10083106123d3576305f5e10083816123c9576123c8613a04565b5b0492506008810190505b61271083106123f85761271083816123ee576123ed613a04565b5b0492506004810190505b6064831061241b576064838161241157612410613a04565b5b0492506002810190505b600a831061242a576001810190505b80915050919050565b6000604051905090565b600080fd5b600080fd5b60007fffffffff0000000000000000000000000000000000000000000000000000000082169050919050565b61247c81612447565b811461248757600080fd5b50565b60008135905061249981612473565b92915050565b6000602082840312156124b5576124b461243d565b5b60006124c38482850161248a565b91505092915050565b60008115159050919050565b6124e1816124cc565b82525050565b60006020820190506124fc60008301846124d8565b92915050565b600081519050919050565b600082825260208201905092915050565b60005b8381101561253c578082015181840152602081019050612521565b60008484015250505050565b6000601f19601f8301169050919050565b600061256482612502565b61256e818561250d565b935061257e81856020860161251e565b61258781612548565b840191505092915050565b600060208201905081810360008301526125ac8184612559565b905092915050565b6000819050919050565b6125c7816125b4565b81146125d257600080fd5b50565b6000813590506125e4816125be565b92915050565b600060208284031215612600576125ff61243d565b5b600061260e848285016125d5565b91505092915050565b600073ffffffffffffffffffffffffffffffffffffffff82169050919050565b600061264282612617565b9050919050565b61265281612637565b82525050565b600060208201905061266d6000830184612649565b92915050565b61267c81612637565b811461268757600080fd5b50565b60008135905061269981612673565b92915050565b600080fd5b600080fd5b7f4e487b7100000000000000000000000000000000000000000000000000000000600052604160045260246000fd5b6126e182612548565b810181811067ffffffffffffffff82111715612700576126ff6126a9565b5b80604052505050565b6000612713612433565b905061271f82826126d8565b919050565b600067ffffffffffffffff82111561273f5761273e6126a9565b5b61274882612548565b9050602081019050919050565b82818337600083830152505050565b600061277761277284612724565b612709565b905082815260208101848484011115612793576127926126a4565b5b61279e848285612755565b509392505050565b600082601f8301126127bb576127ba61269f565b5b81356127cb848260208601612764565b91505092915050565b6000806000606084860312156127ed576127ec61243d565b5b60006127fb8682870161268a565b935050602084013567ffffffffffffffff81111561281c5761281b612442565b5b612828868287016127a6565b9250506040612839868287016125d5565b9150509250925092565b61284c816125b4565b82525050565b60006020820190506128676000830184612843565b92915050565b600080604083850312156128845761288361243d565b5b60006128928582860161268a565b92505060206128a3858286016125d5565b9150509250929050565b6000806000606084860312156128c6576128c561243d565b5b60006128d48682870161268a565b93505060206128e58682870161268a565b92505060406128f6868287016125d5565b9150509250925092565b600061290b82612617565b9050919050565b61291b81612900565b811461292657600080fd5b50565b60008135905061293881612912565b92915050565b6000602082840312156129545761295361243d565b5b600061296284828501612929565b91505092915050565b6000602082840312156129815761298061243d565b5b600061298f8482850161268a565b91505092915050565b600081519050919050565b600082825260208201905092915050565b6000819050602082019050919050565b6129cd816125b4565b82525050565b60006129df83836129c4565b60208301905092915050565b6000602082019050919050565b6000612a0382612998565b612a0d81856129a3565b9350612a18836129b4565b8060005b83811015612a49578151612a3088826129d3565b9750612a3b836129eb565b925050600181019050612a1c565b5085935050505092915050565b60006020820190508181036000830152612a7081846129f8565b905092915050565b6000608082019050612a8d6000830187612649565b612a9a6020830186612843565b612aa76040830185612843565b612ab460608301846124d8565b95945050505050565b612ac6816124cc565b8114612ad157600080fd5b50565b600081359050612ae381612abd565b92915050565b60008060408385031215612b0057612aff61243d565b5b6000612b0e8582860161268a565b9250506020612b1f85828601612ad4565b9150509250929050565b600067ffffffffffffffff821115612b4457612b436126a9565b5b612b4d82612548565b9050602081019050919050565b6000612b6d612b6884612b29565b612709565b905082815260208101848484011115612b8957612b886126a4565b5b612b94848285612755565b509392505050565b600082601f830112612bb157612bb061269f565b5b8135612bc1848260208601612b5a565b91505092915050565b60008060008060808587031215612be457612be361243d565b5b6000612bf28782880161268a565b9450506020612c038782880161268a565b9350506040612c14878288016125d5565b925050606085013567ffffffffffffffff811115612c3557612c34612442565b5b612c4187828801612b9c565b91505092959194509250565b60008060408385031215612c6457612c6361243d565b5b6000612c728582860161268a565b9250506020612c838582860161268a565b9150509250929050565b7f4e487b7100000000000000000000000000000000000000000000000000000000600052602260045260246000fd5b60006002820490506001821680612cd457607f821691505b602082108103612ce757612ce6612c8d565b5b50919050565b7f4e487b7100000000000000000000000000000000000000000000000000000000600052601160045260246000fd5b6000612d27826125b4565b91507fffffffffffffffffffffffffffffffffffffffffffffffffffffffffffffffff8203612d5957612d58612ced565b5b600182019050919050565b7f4552433732313a20617070726f76616c20746f2063757272656e74206f776e6560008201527f7200000000000000000000000000000000000000000000000000000000000000602082015250565b6000612dc060218361250d565b9150612dcb82612d64565b604082019050919050565b60006020820190508181036000830152612def81612db3565b9050919050565b7f4552433732313a20617070726f76652063616c6c6572206973206e6f7420746f60008201527f6b656e206f776e6572206f7220617070726f76656420666f7220616c6c000000602082015250565b6000612e52603d8361250d565b9150612e5d82612df6565b604082019050919050565b60006020820190508181036000830152612e8181612e45565b9050919050565b7f4552433732313a2063616c6c6572206973206e6f7420746f6b656e206f776e6560008201527f72206f7220617070726f76656400000000000000000000000000000000000000602082015250565b6000612ee4602d8361250d565b9150612eef82612e88565b604082019050919050565b60006020820190508181036000830152612f1381612ed7565b9050919050565b7f4e6f74204e4654206f776e657200000000000000000000000000000000000000600082015250565b6000612f50600d8361250d565b9150612f5b82612f1a565b602082019050919050565b60006020820190508181036000830152612f7f81612f43565b9050919050565b7f4c6f616e20616c72656164792066756c6c792072657061696400000000000000600082015250565b6000612fbc60198361250d565b9150612fc782612f86565b602082019050919050565b60006020820190508181036000830152612feb81612faf565b9050919050565b6000612ffd826125b4565b9150613008836125b4565b92508282019050808211156130205761301f612ced565b5b92915050565b600060408201905061303b6000830185612843565b61304860208301846124d8565b9392505050565b7f4e6f2062616c616e636520746f20776974686472617700000000000000000000600082015250565b600061308560168361250d565b91506130908261304f565b602082019050919050565b600060208201905081810360008301526130b481613078565b9050919050565b7f4552433732313a20696e76616c696420746f6b656e2049440000000000000000600082015250565b60006130f160188361250d565b91506130fc826130bb565b602082019050919050565b60006020820190508181036000830152613120816130e4565b9050919050565b7f4552433732313a2061646472657373207a65726f206973206e6f74206120766160008201527f6c6964206f776e65720000000000000000000000000000000000000000000000602082015250565b600061318360298361250d565b915061318e82613127565b604082019050919050565b600060208201905081810360008301526131b281613176565b9050919050565b600081905092915050565b60006131cf82612502565b6131d981856131b9565b93506131e981856020860161251e565b80840191505092915050565b600061320182856131c4565b915061320d82846131c4565b91508190509392505050565b7f4f776e61626c653a206e6577206f776e657220697320746865207a65726f206160008201527f6464726573730000000000000000000000000000000000000000000000000000602082015250565b600061327560268361250d565b915061328082613219565b604082019050919050565b600060208201905081810360008301526132a481613268565b9050919050565b7f4f776e61626c653a2063616c6c6572206973206e6f7420746865206f776e6572600082015250565b60006132e160208361250d565b91506132ec826132ab565b602082019050919050565b60006020820190508181036000830152613310816132d4565b9050919050565b7f4552433732313a206d696e7420746f20746865207a65726f2061646472657373600082015250565b600061334d60208361250d565b915061335882613317565b602082019050919050565b6000602082019050818103600083015261337c81613340565b9050919050565b7f4552433732313a20746f6b656e20616c7265616479206d696e74656400000000600082015250565b60006133b9601c8361250d565b91506133c482613383565b602082019050919050565b600060208201905081810360008301526133e8816133ac565b9050919050565b7f45524337323155524953746f726167653a2055524920736574206f66206e6f6e60008201527f6578697374656e7420746f6b656e000000000000000000000000000000000000602082015250565b600061344b602e8361250d565b9150613456826133ef565b604082019050919050565b6000602082019050818103600083015261347a8161343e565b9050919050565b60008190508160005260206000209050919050565b60006020601f8301049050919050565b600082821b905092915050565b6000600883026134e37fffffffffffffffffffffffffffffffffffffffffffffffffffffffffffffffff826134a6565b6134ed86836134a6565b95508019841693508086168417925050509392505050565b6000819050919050565b600061352a613525613520846125b4565b613505565b6125b4565b9050919050565b6000819050919050565b6135448361350f565b61355861355082613531565b8484546134b3565b825550505050565b600090565b61356d613560565b61357881848461353b565b505050565b5b8181101561359c57613591600082613565565b60018101905061357e565b5050565b601f8211156135e1576135b281613481565b6135bb84613496565b810160208510156135ca578190505b6135de6135d685613496565b83018261357d565b50505b505050565b600082821c905092915050565b6000613604600019846008026135e6565b1980831691505092915050565b600061361d83836135f3565b9150826002028217905092915050565b61363682612502565b67ffffffffffffffff81111561364f5761364e6126a9565b5b6136598254612cbc565b6136648282856135a0565b600060209050601f8311600181146136975760008415613685578287015190505b61368f8582613611565b8655506136f7565b601f1984166136a586613481565b60005b828110156136cd578489015182556001820191506020850194506020810190506136a8565b868310156136ea57848901516136e6601f8916826135f3565b8355505b6001600288020188555050505b505050505050565b7f4552433732313a207472616e736665722066726f6d20696e636f72726563742060008201527f6f776e6572000000000000000000000000000000000000000000000000000000602082015250565b600061375b60258361250d565b9150613766826136ff565b604082019050919050565b6000602082019050818103600083015261378a8161374e565b9050919050565b7f4552433732313a207472616e7366657220746f20746865207a65726f2061646460008201527f7265737300000000000000000000000000000000000000000000000000000000602082015250565b60006137ed60248361250d565b91506137f882613791565b604082019050919050565b6000602082019050818103600083015261381c816137e0565b9050919050565b7f4552433732313a20617070726f766520746f2063616c6c657200000000000000600082015250565b600061385960198361250d565b915061386482613823565b602082019050919050565b600060208201905081810360008301526138888161384c565b9050919050565b7f4552433732313a207472616e7366657220746f206e6f6e20455243373231526560008201527f63656976657220696d706c656d656e7465720000000000000000000000000000602082015250565b60006138eb60328361250d565b91506138f68261388f565b604082019050919050565b6000602082019050818103600083015261391a816138de565b9050919050565b600081519050919050565b600082825260208201905092915050565b600061394882613921565b613952818561392c565b935061396281856020860161251e565b61396b81612548565b840191505092915050565b600060808201905061398b6000830187612649565b6139986020830186612649565b6139a56040830185612843565b81810360608301526139b7818461393d565b905095945050505050565b6000815190506139d181612473565b92915050565b6000602082840312156139ed576139ec61243d565b5b60006139fb848285016139c2565b91505092915050565b7f4e487b7100000000000000000000000000000000000000000000000000000000600052601260045260246000fdfea2646970667358221220ec74023a54bf210a1245d3158c25ca2267f95233e8b210839e1b26b750de0a2464736f6c634300081c0033",
  "linkReferences": {},
  "deployedLinkReferences": {}
}