{
  "_format": "hh-sol-artifact-1",
  "contractName": "EduFunding",
  "sourceName": "contracts/EduFunding.sol",
  "abi": [
    {
      "inputs": [
        {
          "internalType": "address",
          "name": "initialOwner",
          "type": "address"
        },
        {
          "internalType": "address",
          "name": "_donationVaultAddress",
          "type": "address"
        }
      ],
      "stateMutability": "nonpayable",
      "type": "constructor"
    },
    {
      "anonymous": false,
      "inputs": [
        {
          "indexed": true,
          "internalType": "address",
          "name": "applicant",
          "type": "address"
        },
        {
          "indexed": false,
          "internalType": "uint256",
          "name": "nftId",
          "type": "uint256"
        }
      ],
      "name": "ApplicationApproved",
      "type": "event"
    },
    {
      "anonymous": false,
      "inputs": [
        {
          "indexed": true,
          "internalType": "address",
          "name": "applicant",
          "type": "address"
        },
        {
          "indexed": false,
          "internalType": "bytes32",
          "name": "appHash",
          "type": "bytes32"
        }
      ],
      "name": "ApplicationSubmitted",
      "type": "event"
    },
    {
      "anonymous": false,
      "inputs": [
        {
          "indexed": true,
          "internalType": "address",
          "name": "applicant",
          "type": "address"
        }
      ],
      "name": "ApplicationVerified",
      "type": "event"
    },
    {
      "anonymous": false,
      "inputs": [
        {
          "indexed": true,
          "internalType": "address",
          "name": "owner",
          "type": "address"
        },
        {
          "indexed": true,
          "internalType": "address",
          "name": "approved",
          "type": "address"
        },
        {
          "indexed": true,
          "internalType": "uint256",
          "name": "tokenId",
          "type": "uint256"
        }
      ],
      "name": "Approval",
      "type": "event"
    },
    {
      "anonymous": false,
      "inputs": [
        {
          "indexed": true,
          "internalType": "address",
          "name": "owner",
          "type": "address"
        },
        {
          "indexed": true,
          "internalType": "address",
          "name": "operator",
          "type": "address"
        },
        {
          "indexed": false,
          "internalType": "bool",
          "name": "approved",
          "type": "bool"
        }
      ],
      "name": "ApprovalForAll",
      "type": "event"
    },
    {
      "anonymous": false,
      "inputs": [
        {
          "indexed": false,
          "internalType": "uint256",
          "name": "_fromTokenId",
          "type": "uint256"
        },
        {
          "indexed": false,
          "internalType": "uint256",
          "name": "_toTokenId",
          "type": "uint256"
        }
      ],
      "name": "BatchMetadataUpdate",
      "type": "event"
    },
    {
      "anonymous": false,
      "inputs": [
        {
          "indexed": false,
          "internalType": "uint256",
          "name": "_tokenId",
          "type": "uint256"
        }
      ],
      "name": "MetadataUpdate",
      "type": "event"
    },
    {
      "anonymous": false,
      "inputs": [
        {
          "indexed": true,
          "internalType": "address",
          "name": "previousOwner",
          "type": "address"
        },
        {
          "indexed": true,
          "internalType": "address",
          "name": "newOwner",
          "type": "address"
        }
      ],
      "name": "OwnershipTransferred",
      "type": "event"
    },
    {
      "anonymous": false,
      "inputs": [
        {
          "indexed": true,
          "internalType": "address",
          "name": "applicant",
          "type": "address"
        },
        {
          "indexed": false,
          "internalType": "uint256",
          "name": "nftId",
          "type": "uint256"
        },
        {
          "indexed": false,
          "internalType": "uint256",
          "name": "amount",
          "type": "uint256"
        },
        {
          "indexed": false,
          "internalType": "bool",
          "name": "fullyRepaid",
          "type": "bool"
        }
      ],
      "name": "RepaymentMade",
      "type": "event"
    },
    {
      "anonymous": false,
      "inputs": [
        {
          "indexed": true,
          "internalType": "address",
          "name": "from",
          "type": "address"
        },
        {
          "indexed": true,
          "internalType": "address",
          "name": "to",
          "type": "address"
        },
        {
          "indexed": true,
          "internalType": "uint256",
          "name": "tokenId",
          "type": "uint256"
        }
      ],
      "name": "Transfer",
      "type": "event"
    },
    {
      "inputs": [
        {
          "internalType": "address",
          "name": "",
          "type": "address"
        },
        {
          "internalType": "uint256",
          "name": "",
          "type": "uint256"
        }
      ],
      "name": "applicantNFTs",
      "outputs": [
        {
          "internalType": "uint256",
          "name": "",
          "type": "uint256"
        }
      ],
      "stateMutability": "view",
      "type": "function"
    },
    {
      "inputs": [
        {
          "internalType": "address",
          "name": "",
          "type": "address"
        }
      ],
      "name": "applications",
      "outputs": [
        {
          "internalType": "address",
          "name": "applicant",
          "type": "address"
        },
        {
          "internalType": "enum EduFunding.Role",
          "name": "role",
          "type": "uint8"
        },
        {
          "internalType": "string",
          "name": "metadataURI",
          "type": "string"
        },
        {
          "internalType": "bytes32",
          "name": "applicationHash",
          "type": "bytes32"
        },
        {
          "internalType": "bool",
          "name": "verified",
          "type": "bool"
        },
        {
          "internalType": "bool",
          "name": "approved",
          "type": "bool"
        },
        {
          "internalType": "uint256",
          "name": "nftId",
          "type": "uint256"
        }
      ],
      "stateMutability": "view",
      "type": "function"
    },
    {
      "inputs": [
        {
          "internalType": "address",
          "name": "to",
          "type": "address"
        },
        {
          "internalType": "uint256",
          "name": "tokenId",
          "type": "uint256"
        }
      ],
      "name": "approve",
      "outputs": [],
      "stateMutability": "nonpayable",
      "type": "function"
    },
    {
      "inputs": [
        {
          "internalType": "address",
          "name": "applicant",
          "type": "address"
        },
        {
          "internalType": "uint256",
          "name": "loanAmount",
          "type": "uint256"
        }
      ],
      "name": "approveApplication",
      "outputs": [],
      "stateMutability": "nonpayable",
      "type": "function"
    },
    {
      "inputs": [
        {
          "internalType": "address",
          "name": "owner",
          "type": "address"
        }
      ],
      "name": "balanceOf",
      "outputs": [
        {
          "internalType": "uint256",
          "name": "",
          "type": "uint256"
        }
      ],
      "stateMutability": "view",
      "type": "function"
    },
    {
      "inputs": [],
      "name": "donationVault",
      "outputs": [
        {
          "internalType": "contract IDonationVault",
          "name": "",
          "type": "address"
        }
      ],
      "stateMutability": "view",
      "type": "function"
    },
    {
      "inputs": [
        {
          "internalType": "address",
          "name": "applicant",
          "type": "address"
        }
      ],
      "name": "getApplicantNFTs",
      "outputs": [
        {
          "internalType": "uint256[]",
          "name": "",
          "type": "uint256[]"
        }
      ],
      "stateMutability": "view",
      "type": "function"
    },
    {
      "inputs": [
        {
          "internalType": "uint256",
          "name": "tokenId",
          "type": "uint256"
        }
      ],
      "name": "getApproved",
      "outputs": [
        {
          "internalType": "address",
          "name": "",
          "type": "address"
        }
      ],
      "stateMutability": "view",
      "type": "function"
    },
    {
      "inputs": [
        {
          "internalType": "uint256",
          "name": "nftId",
          "type": "uint256"
        }
      ],
      "name": "getRepaymentDetails",
      "outputs": [
        {
          "internalType": "uint256",
          "name": "totalLoan",
          "type": "uint256"
        },
        {
          "internalType": "uint256",
          "name": "amountRepaid",
          "type": "uint256"
        },
        {
          "internalType": "bool",
          "name": "fullyRepaid",
          "type": "bool"
        }
      ],
      "stateMutability": "view",
      "type": "function"
    },
    {
      "inputs": [
        {
          "internalType": "address",
          "name": "",
          "type": "address"
        }
      ],
      "name": "hasApplied",
      "outputs": [
        {
          "internalType": "bool",
          "name": "",
          "type": "bool"
        }
      ],
      "stateMutability": "view",
      "type": "function"
    },
    {
      "inputs": [
        {
          "internalType": "address",
          "name": "owner",
          "type": "address"
        },
        {
          "internalType": "address",
          "name": "operator",
          "type": "address"
        }
      ],
      "name": "isApprovedForAll",
      "outputs": [
        {
          "internalType": "bool",
          "name": "",
          "type": "bool"
        }
      ],
      "stateMutability": "view",
      "type": "function"
    },
    {
      "inputs": [],
      "name": "name",
      "outputs": [
        {
          "internalType": "string",
          "name": "",
          "type": "string"
        }
      ],
      "stateMutability": "view",
      "type": "function"
    },
    {
      "inputs": [],
      "name": "nextNftId",
      "outputs": [
        {
          "internalType": "uint256",
          "name": "",
          "type": "uint256"
        }
      ],
      "stateMutability": "view",
      "type": "function"
    },
    {
      "inputs": [],
      "name": "owner",
      "outputs": [
        {
          "internalType": "address",
          "name": "",
          "type": "address"
        }
      ],
      "stateMutability": "view",
      "type": "function"
    },
    {
      "inputs": [
        {
          "internalType": "uint256",
          "name": "tokenId",
          "type": "uint256"
        }
      ],
      "name": "ownerOf",
      "outputs": [
        {
          "internalType": "address",
          "name": "",
          "type": "address"
        }
      ],
      "stateMutability": "view",
      "type": "function"
    },
    {
      "inputs": [],
      "name": "renounceOwnership",
      "outputs": [],
      "stateMutability": "nonpayable",
      "type": "function"
    },
    {
      "inputs": [
        {
          "internalType": "uint256",
          "name": "nftId",
          "type": "uint256"
        }
      ],
      "name": "repayLoan",
      "outputs": [],
      "stateMutability": "payable",
      "type": "function"
    },
    {
      "inputs": [
        {
          "internalType": "uint256",
          "name": "",
          "type": "uint256"
        }
      ],
      "name": "repayments",
      "outputs": [
        {
          "internalType": "uint256",
          "name": "totalLoan",
          "type": "uint256"
        },
        {
          "internalType": "uint256",
          "name": "amountRepaid",
          "type": "uint256"
        },
        {
          "internalType": "bool",
          "name": "fullyRepaid",
          "type": "bool"
        }
      ],
      "stateMutability": "view",
      "type": "function"
    },
    {
      "inputs": [
        {
          "internalType": "address",
          "name": "from",
          "type": "address"
        },
        {
          "internalType": "address",
          "name": "to",
          "type": "address"
        },
        {
          "internalType": "uint256",
          "name": "tokenId",
          "type": "uint256"
        }
      ],
      "name": "safeTransferFrom",
      "outputs": [],
      "stateMutability": "nonpayable",
      "type": "function"
    },
    {
      "inputs": [
        {
          "internalType": "address",
          "name": "from",
          "type": "address"
        },
        {
          "internalType": "address",
          "name": "to",
          "type": "address"
        },
        {
          "internalType": "uint256",
          "name": "tokenId",
          "type": "uint256"
        },
        {
          "internalType": "bytes",
          "name": "data",
          "type": "bytes"
        }
      ],
      "name": "safeTransferFrom",
      "outputs": [],
      "stateMutability": "nonpayable",
      "type": "function"
    },
    {
      "inputs": [
        {
          "internalType": "address",
          "name": "operator",
          "type": "address"
        },
        {
          "internalType": "bool",
          "name": "approved",
          "type": "bool"
        }
      ],
      "name": "setApprovalForAll",
      "outputs": [],
      "stateMutability": "nonpayable",
      "type": "function"
    },
    {
      "inputs": [
        {
          "internalType": "enum EduFunding.Role",
          "name": "role",
          "type": "uint8"
        },
        {
          "internalType": "string",
          "name": "metadataURI",
          "type": "string"
        },
        {
          "internalType": "bytes32",
          "name": "appHash",
          "type": "bytes32"
        }
      ],
      "name": "submitApplication",
      "outputs": [],
      "stateMutability": "nonpayable",
      "type": "function"
    },
    {
      "inputs": [
        {
          "internalType": "bytes4",
          "name": "interfaceId",
          "type": "bytes4"
        }
      ],
      "name": "supportsInterface",
      "outputs": [
        {
          "internalType": "bool",
          "name": "",
          "type": "bool"
        }
      ],
      "stateMutability": "view",
      "type": "function"
    },
    {
      "inputs": [],
      "name": "symbol",
      "outputs": [
        {
          "internalType": "string",
          "name": "",
          "type": "string"
        }
      ],
      "stateMutability": "view",
      "type": "function"
    },
    {
      "inputs": [
        {
          "internalType": "uint256",
          "name": "tokenId",
          "type": "uint256"
        }
      ],
      "name": "tokenURI",
      "outputs": [
        {
          "internalType": "string",
          "name": "",
          "type": "string"
        }
      ],
      "stateMutability": "view",
      "type": "function"
    },
    {
      "inputs": [
        {
          "internalType": "address",
          "name": "from",
          "type": "address"
        },
        {
          "internalType": "address",
          "name": "to",
          "type": "address"
        },
        {
          "internalType": "uint256",
          "name": "tokenId",
          "type": "uint256"
        }
      ],
      "name": "transferFrom",
      "outputs": [],
      "stateMutability": "nonpayable",
      "type": "function"
    },
    {
      "inputs": [
        {
          "internalType": "address",
          "name": "newOwner",
          "type": "address"
        }
      ],
      "name": "transferOwnership",
      "outputs": [],
      "stateMutability": "nonpayable",
      "type": "function"
    },
    {
      "inputs": [
        {
          "internalType": "address payable",
          "name": "to",
          "type": "address"
        }
      ],
      "name": "withdrawRepayments",
      "outputs": [],
      "stateMutability": "nonpayable",
      "type": "function"
    }
  ],
  "bytecode": "0x608060405234801561001057600080fd5b50604051614c48380380614c48833981810160405281019061003291906103a7565b6040518060400160405280600d81526020017f45647546756e64696e674e4654000000000000000000000000000000000000008152506040518060400160405280600481526020017f454455460000000000000000000000000000000000000000000000000000000081525081600090816100ad9190610637565b5080600190816100bd9190610637565b5050506100dc6100d161013360201b60201c565b61013b60201b60201c565b6100eb8261020160201b60201c565b80600860006101000a81548173ffffffffffffffffffffffffffffffffffffffff021916908373ffffffffffffffffffffffffffffffffffffffff1602179055505050610818565b600033905090565b6000600760009054906101000a900473ffffffffffffffffffffffffffffffffffffffff16905081600760006101000a81548173ffffffffffffffffffffffffffffffffffffffff021916908373ffffffffffffffffffffffffffffffffffffffff1602179055508173ffffffffffffffffffffffffffffffffffffffff168173ffffffffffffffffffffffffffffffffffffffff167f8be0079c531659141344cd1fd0a4f28419497f9722a3daafe3b4186f6b6457e060405160405180910390a35050565b61020f61029060201b60201c565b600073ffffffffffffffffffffffffffffffffffffffff168173ffffffffffffffffffffffffffffffffffffffff160361027e576040517f08c379a00000000000000000000000000000000000000000000000000000000081526004016102759061078c565b60405180910390fd5b61028d8161013b60201b60201c565b50565b61029e61013360201b60201c565b73ffffffffffffffffffffffffffffffffffffffff166102c261031a60201b60201c565b73ffffffffffffffffffffffffffffffffffffffff1614610318576040517f08c379a000000000000000000000000000000000000000000000000000000000815260040161030f906107f8565b60405180910390fd5b565b6000600760009054906101000a900473ffffffffffffffffffffffffffffffffffffffff16905090565b600080fd5b600073ffffffffffffffffffffffffffffffffffffffff82169050919050565b600061037482610349565b9050919050565b61038481610369565b811461038f57600080fd5b50565b6000815190506103a18161037b565b92915050565b600080604083850312156103be576103bd610344565b5b60006103cc85828601610392565b92505060206103dd85828601610392565b9150509250929050565b600081519050919050565b7f4e487b7100000000000000000000000000000000000000000000000000000000600052604160045260246000fd5b7f4e487b7100000000000000000000000000000000000000000000000000000000600052602260045260246000fd5b6000600282049050600182168061046857607f821691505b60208210810361047b5761047a610421565b5b50919050565b60008190508160005260206000209050919050565b60006020601f8301049050919050565b600082821b905092915050565b6000600883026104e37fffffffffffffffffffffffffffffffffffffffffffffffffffffffffffffffff826104a6565b6104ed86836104a6565b95508019841693508086168417925050509392505050565b6000819050919050565b6000819050919050565b600061053461052f61052a84610505565b61050f565b610505565b9050919050565b6000819050919050565b61054e83610519565b61056261055a8261053b565b8484546104b3565b825550505050565b600090565b61057761056a565b610582818484610545565b505050565b5b818110156105a65761059b60008261056f565b600181019050610588565b5050565b601f8211156105eb576105bc81610481565b6105c584610496565b810160208510156105d4578190505b6105e86105e085610496565b830182610587565b50505b505050565b600082821c905092915050565b600061060e600019846008026105f0565b1980831691505092915050565b600061062783836105fd565b9150826002028217905092915050565b610640826103e7565b67ffffffffffffffff811115610659576106586103f2565b5b6106638254610450565b61066e8282856105aa565b600060209050601f8311600181146106a1576000841561068f578287015190505b610699858261061b565b865550610701565b601f1984166106af86610481565b60005b828110156106d7578489015182556001820191506020850194506020810190506106b2565b868310156106f457848901516106f0601f8916826105fd565b8355505b6001600288020188555050505b505050505050565b600082825260208201905092915050565b7f4f776e61626c653a206e6577206f776e657220697320746865207a65726f206160008201527f6464726573730000000000000000000000000000000000000000000000000000602082015250565b6000610776602683610709565b91506107818261071a565b604082019050919050565b600060208201905081810360008301526107a581610769565b9050919050565b7f4f776e61626c653a2063616c6c6572206973206e6f7420746865206f776e6572600082015250565b60006107e2602083610709565b91506107ed826107ac565b602082019050919050565b60006020820190508181036000830152610811816107d5565b9050919050565b614421806108276000396000f3fe6080604052600436106101b75760003560e01c80637c3bf42d116100ec578063ab7b1c891161008a578063ce87103911610064578063ce87103914610651578063e985e9c51461067a578063f2fde38b146106b7578063f35eecf3146106e0576101b7565b8063ab7b1c89146105cf578063b88d4fde146105eb578063c87b56dd14610614576101b7565b806395d89b41116100c657806395d89b41146105135780639ff637bb1461053e578063a22cb46514610567578063a85f376114610590576101b7565b80637c3bf42d1461047a5780638da5cb5b146104bd57806393f1da4f146104e8576101b7565b806335bd2fcb116101595780635893227f116101335780635893227f146103c05780636352211e146103e957806370a0823114610426578063715018a614610463576101b7565b806335bd2fcb1461031b57806342842e0e146103585780635791db7714610381576101b7565b806309413a511161019557806309413a5114610261578063095ea7b31461029e57806323b872dd146102c75780632b659b0c146102f0576101b7565b806301ffc9a7146101bc57806306fdde03146101f9578063081812fc14610224575b600080fd5b3480156101c857600080fd5b506101e360048036038101906101de9190612afc565b61071d565b6040516101f09190612b44565b60405180910390f35b34801561020557600080fd5b5061020e61077e565b60405161021b9190612bef565b60405180910390f35b34801561023057600080fd5b5061024b60048036038101906102469190612c47565b610810565b6040516102589190612cb5565b60405180910390f35b34801561026d57600080fd5b5061028860048036038101906102839190612cfc565b610856565b6040516102959190612b44565b60405180910390f35b3480156102aa57600080fd5b506102c560048036038101906102c09190612d29565b610876565b005b3480156102d357600080fd5b506102ee60048036038101906102e99190612d69565b61098d565b005b3480156102fc57600080fd5b506103056109ed565b6040516103129190612e1b565b60405180910390f35b34801561032757600080fd5b50610342600480360381019061033d9190612cfc565b610a13565b60405161034f9190612ef4565b60405180910390f35b34801561036457600080fd5b5061037f600480360381019061037a9190612d69565b610aaa565b005b34801561038d57600080fd5b506103a860048036038101906103a39190612c47565b610aca565b6040516103b793929190612f25565b60405180910390f35b3480156103cc57600080fd5b506103e760048036038101906103e29190612d29565b610b3c565b005b3480156103f557600080fd5b50610410600480360381019061040b9190612c47565b610efc565b60405161041d9190612cb5565b60405180910390f35b34801561043257600080fd5b5061044d60048036038101906104489190612cfc565b610f82565b60405161045a9190612f5c565b60405180910390f35b34801561046f57600080fd5b50610478611039565b005b34801561048657600080fd5b506104a1600480360381019061049c9190612cfc565b61104d565b6040516104b49796959493929190613007565b60405180910390f35b3480156104c957600080fd5b506104d261115e565b6040516104df9190612cb5565b60405180910390f35b3480156104f457600080fd5b506104fd611188565b60405161050a9190612f5c565b60405180910390f35b34801561051f57600080fd5b5061052861118e565b6040516105359190612bef565b60405180910390f35b34801561054a57600080fd5b5061056560048036038101906105609190613203565b611220565b005b34801561057357600080fd5b5061058e6004803603810190610589919061329e565b6114dd565b005b34801561059c57600080fd5b506105b760048036038101906105b29190612c47565b6114f3565b6040516105c693929190612f25565b60405180910390f35b6105e960048036038101906105e49190612c47565b61152a565b005b3480156105f757600080fd5b50610612600480360381019061060d919061337f565b6116b8565b005b34801561062057600080fd5b5061063b60048036038101906106369190612c47565b61171a565b6040516106489190612bef565b60405180910390f35b34801561065d57600080fd5b5061067860048036038101906106739190613440565b61182c565b005b34801561068657600080fd5b506106a1600480360381019061069c919061346d565b6118c1565b6040516106ae9190612b44565b60405180910390f35b3480156106c357600080fd5b506106de60048036038101906106d99190612cfc565b611955565b005b3480156106ec57600080fd5b5061070760048036038101906107029190612d29565b6119d8565b6040516107149190612f5c565b60405180910390f35b6000634906490660e01b7bffffffffffffffffffffffffffffffffffffffffffffffffffffffff1916827bffffffffffffffffffffffffffffffffffffffffffffffffffffffff19161480610777575061077682611a09565b5b9050919050565b60606000805461078d906134dc565b80601f01602080910402602001604051908101604052809291908181526020018280546107b9906134dc565b80156108065780601f106107db57610100808354040283529160200191610806565b820191906000526020600020905b8154815290600101906020018083116107e957829003601f168201915b5050505050905090565b600061081b82611aeb565b6004600083815260200190815260200160002060009054906101000a900473ffffffffffffffffffffffffffffffffffffffff169050919050565b600a6020528060005260406000206000915054906101000a900460ff1681565b600061088182610efc565b90508073ffffffffffffffffffffffffffffffffffffffff168373ffffffffffffffffffffffffffffffffffffffff16036108f1576040517f08c379a00000000000000000000000000000000000000000000000000000000081526004016108e89061357f565b60405180910390fd5b8073ffffffffffffffffffffffffffffffffffffffff16610910611b36565b73ffffffffffffffffffffffffffffffffffffffff16148061093f575061093e81610939611b36565b6118c1565b5b61097e576040517f08c379a000000000000000000000000000000000000000000000000000000000815260040161097590613611565b60405180910390fd5b6109888383611b3e565b505050565b61099e610998611b36565b82611bf7565b6109dd576040517f08c379a00000000000000000000000000000000000000000000000000000000081526004016109d4906136a3565b60405180910390fd5b6109e8838383611c8c565b505050565b600860009054906101000a900473ffffffffffffffffffffffffffffffffffffffff1681565b6060600c60008373ffffffffffffffffffffffffffffffffffffffff1673ffffffffffffffffffffffffffffffffffffffff168152602001908152602001600020805480602002602001604051908101604052809291908181526020018280548015610a9e57602002820191906000526020600020905b815481526020019060010190808311610a8a575b50505050509050919050565b610ac5838383604051806020016040528060008152506116b8565b505050565b600080600080600b600086815260200190815260200160002060405180606001604052908160008201548152602001600182015481526020016002820160009054906101000a900460ff1615151515815250509050806000015181602001518260400151935093509350509193909250565b610b44611f85565b600a60008373ffffffffffffffffffffffffffffffffffffffff1673ffffffffffffffffffffffffffffffffffffffff16815260200190815260200160002060009054906101000a900460ff16610bd0576040517f08c379a0000000000000000000000000000000000000000000000000000000008152600401610bc79061370f565b60405180910390fd5b6000600960008473ffffffffffffffffffffffffffffffffffffffff1673ffffffffffffffffffffffffffffffffffffffff16815260200190815260200160002090508060030160009054906101000a900460ff16610c64576040517f08c379a0000000000000000000000000000000000000000000000000000000008152600401610c5b9061377b565b60405180910390fd5b8060030160019054906101000a900460ff1615610cb6576040517f08c379a0000000000000000000000000000000000000000000000000000000008152600401610cad906137e7565b60405180910390fd5b6000600d549050600d6000815480929190610cd090613836565b9190505550610cdf8482612003565b610d7581836001018054610cf2906134dc565b80601f0160208091040260200160405190810160405280929190818152602001828054610d1e906134dc565b8015610d6b5780601f10610d4057610100808354040283529160200191610d6b565b820191906000526020600020905b815481529060010190602001808311610d4e57829003601f168201915b5050505050612220565b60018260030160016101000a81548160ff021916908315150217905550808260040181905550600c60008573ffffffffffffffffffffffffffffffffffffffff1673ffffffffffffffffffffffffffffffffffffffff16815260200190815260200160002081908060018154018082558091505060019003906000526020600020016000909190919091505560006001811115610e1557610e14612f77565b5b8260000160149054906101000a900460ff166001811115610e3957610e38612f77565b5b03610ea85760405180606001604052808481526020016000815260200160001515815250600b6000838152602001908152602001600020600082015181600001556020820151816001015560408201518160020160006101000a81548160ff0219169083151502179055509050505b8373ffffffffffffffffffffffffffffffffffffffff167f521fc5eaa62ed52a735f1d8d6fb46aa457cea19235e8ad937404b503bdefa10782604051610eee9190612f5c565b60405180910390a250505050565b600080610f08836122c4565b9050600073ffffffffffffffffffffffffffffffffffffffff168173ffffffffffffffffffffffffffffffffffffffff1603610f79576040517f08c379a0000000000000000000000000000000000000000000000000000000008152600401610f70906138ca565b60405180910390fd5b80915050919050565b60008073ffffffffffffffffffffffffffffffffffffffff168273ffffffffffffffffffffffffffffffffffffffff1603610ff2576040517f08c379a0000000000000000000000000000000000000000000000000000000008152600401610fe99061395c565b60405180910390fd5b600360008373ffffffffffffffffffffffffffffffffffffffff1673ffffffffffffffffffffffffffffffffffffffff168152602001908152602001600020549050919050565b611041611f85565b61104b6000612301565b565b60096020528060005260406000206000915090508060000160009054906101000a900473ffffffffffffffffffffffffffffffffffffffff16908060000160149054906101000a900460ff16908060010180546110a9906134dc565b80601f01602080910402602001604051908101604052809291908181526020018280546110d5906134dc565b80156111225780601f106110f757610100808354040283529160200191611122565b820191906000526020600020905b81548152906001019060200180831161110557829003601f168201915b5050505050908060020154908060030160009054906101000a900460ff16908060030160019054906101000a900460ff16908060040154905087565b6000600760009054906101000a900473ffffffffffffffffffffffffffffffffffffffff16905090565b600d5481565b60606001805461119d906134dc565b80601f01602080910402602001604051908101604052809291908181526020018280546111c9906134dc565b80156112165780601f106111eb57610100808354040283529160200191611216565b820191906000526020600020905b8154815290600101906020018083116111f957829003601f168201915b5050505050905090565b600a60003373ffffffffffffffffffffffffffffffffffffffff1673ffffffffffffffffffffffffffffffffffffffff16815260200190815260200160002060009054906101000a900460ff16156112ad576040517f08c379a00000000000000000000000000000000000000000000000000000000081526004016112a4906139c8565b60405180910390fd5b6040518060e001604052803373ffffffffffffffffffffffffffffffffffffffff1681526020018460018111156112e7576112e6612f77565b5b81526020018381526020018281526020016001151581526020016000151581526020016000815250600960003373ffffffffffffffffffffffffffffffffffffffff1673ffffffffffffffffffffffffffffffffffffffff16815260200190815260200160002060008201518160000160006101000a81548173ffffffffffffffffffffffffffffffffffffffff021916908373ffffffffffffffffffffffffffffffffffffffff16021790555060208201518160000160146101000a81548160ff021916908360018111156113c0576113bf612f77565b5b021790555060408201518160010190816113da9190613b8a565b506060820151816002015560808201518160030160006101000a81548160ff02191690831515021790555060a08201518160030160016101000a81548160ff02191690831515021790555060c082015181600401559050506001600a60003373ffffffffffffffffffffffffffffffffffffffff1673ffffffffffffffffffffffffffffffffffffffff16815260200190815260200160002060006101000a81548160ff0219169083151502179055503373ffffffffffffffffffffffffffffffffffffffff167ff7c7e924cbd2c5be3016b847f3ce29eedede70ab155a638491e19cccab429907826040516114d09190613c5c565b60405180910390a2505050565b6114ef6114e8611b36565b83836123c7565b5050565b600b6020528060005260406000206000915090508060000154908060010154908060020160009054906101000a900460ff16905083565b3373ffffffffffffffffffffffffffffffffffffffff1661154a82610efc565b73ffffffffffffffffffffffffffffffffffffffff16146115a0576040517f08c379a000000000000000000000000000000000000000000000000000000000815260040161159790613cc3565b60405180910390fd5b6000600b600083815260200190815260200160002090508060020160009054906101000a900460ff1615611609576040517f08c379a000000000000000000000000000000000000000000000000000000000815260040161160090613d2f565b60405180910390fd5b3481600101600082825461161d9190613d4f565b9250508190555080600001548160010154106116515760018160020160006101000a81548160ff0219169083151502179055505b3373ffffffffffffffffffffffffffffffffffffffff167f2a67d4417ec095ac03d889093b0d68ae4832a95b190f61f4e0ca15602c08d5c883348460020160009054906101000a900460ff166040516116ac93929190612f25565b60405180910390a25050565b6116c96116c3611b36565b83611bf7565b611708576040517f08c379a00000000000000000000000000000000000000000000000000000000081526004016116ff906136a3565b60405180910390fd5b61171484848484612533565b50505050565b606061172582611aeb565b6000600660008481526020019081526020016000208054611745906134dc565b80601f0160208091040260200160405190810160405280929190818152602001828054611771906134dc565b80156117be5780601f10611793576101008083540402835291602001916117be565b820191906000526020600020905b8154815290600101906020018083116117a157829003601f168201915b5050505050905060006117cf61258f565b905060008151036117e4578192505050611827565b600082511115611819578082604051602001611801929190613dbf565b60405160208183030381529060405292505050611827565b611822846125a6565b925050505b919050565b611834611f85565b60004711611877576040517f08c379a000000000000000000000000000000000000000000000000000000000815260040161186e90613e2f565b60405180910390fd5b8073ffffffffffffffffffffffffffffffffffffffff166108fc479081150290604051600060405180830381858888f193505050501580156118bd573d6000803e3d6000fd5b5050565b6000600560008473ffffffffffffffffffffffffffffffffffffffff1673ffffffffffffffffffffffffffffffffffffffff16815260200190815260200160002060008373ffffffffffffffffffffffffffffffffffffffff1673ffffffffffffffffffffffffffffffffffffffff16815260200190815260200160002060009054906101000a900460ff16905092915050565b61195d611f85565b600073ffffffffffffffffffffffffffffffffffffffff168173ffffffffffffffffffffffffffffffffffffffff16036119cc576040517f08c379a00000000000000000000000000000000000000000000000000000000081526004016119c390613ec1565b60405180910390fd5b6119d581612301565b50565b600c60205281600052604060002081815481106119f457600080fd5b90600052602060002001600091509150505481565b60007f80ac58cd000000000000000000000000000000000000000000000000000000007bffffffffffffffffffffffffffffffffffffffffffffffffffffffff1916827bffffffffffffffffffffffffffffffffffffffffffffffffffffffff19161480611ad457507f5b5e139f000000000000000000000000000000000000000000000000000000007bffffffffffffffffffffffffffffffffffffffffffffffffffffffff1916827bffffffffffffffffffffffffffffffffffffffffffffffffffffffff1916145b80611ae45750611ae38261260e565b5b9050919050565b611af481612678565b611b33576040517f08c379a0000000000000000000000000000000000000000000000000000000008152600401611b2a906138ca565b60405180910390fd5b50565b600033905090565b816004600083815260200190815260200160002060006101000a81548173ffffffffffffffffffffffffffffffffffffffff021916908373ffffffffffffffffffffffffffffffffffffffff160217905550808273ffffffffffffffffffffffffffffffffffffffff16611bb183610efc565b73ffffffffffffffffffffffffffffffffffffffff167f8c5be1e5ebec7d5bd14f71427d1e84f3dd0314c0f7b2291e5b200ac8c7c3b92560405160405180910390a45050565b600080611c0383610efc565b90508073ffffffffffffffffffffffffffffffffffffffff168473ffffffffffffffffffffffffffffffffffffffff161480611c455750611c4481856118c1565b5b80611c8357508373ffffffffffffffffffffffffffffffffffffffff16611c6b84610810565b73ffffffffffffffffffffffffffffffffffffffff16145b91505092915050565b8273ffffffffffffffffffffffffffffffffffffffff16611cac82610efc565b73ffffffffffffffffffffffffffffffffffffffff1614611d02576040517f08c379a0000000000000000000000000000000000000000000000000000000008152600401611cf990613f53565b60405180910390fd5b600073ffffffffffffffffffffffffffffffffffffffff168273ffffffffffffffffffffffffffffffffffffffff1603611d71576040517f08c379a0000000000000000000000000000000000000000000000000000000008152600401611d6890613fe5565b60405180910390fd5b611d7e83838360016126b9565b8273ffffffffffffffffffffffffffffffffffffffff16611d9e82610efc565b73ffffffffffffffffffffffffffffffffffffffff1614611df4576040517f08c379a0000000000000000000000000000000000000000000000000000000008152600401611deb90613f53565b60405180910390fd5b6004600082815260200190815260200160002060006101000a81549073ffffffffffffffffffffffffffffffffffffffff02191690556001600360008573ffffffffffffffffffffffffffffffffffffffff1673ffffffffffffffffffffffffffffffffffffffff168152602001908152602001600020600082825403925050819055506001600360008473ffffffffffffffffffffffffffffffffffffffff1673ffffffffffffffffffffffffffffffffffffffff16815260200190815260200160002060008282540192505081905550816002600083815260200190815260200160002060006101000a81548173ffffffffffffffffffffffffffffffffffffffff021916908373ffffffffffffffffffffffffffffffffffffffff160217905550808273ffffffffffffffffffffffffffffffffffffffff168473ffffffffffffffffffffffffffffffffffffffff167fddf252ad1be2c89b69c2b068fc378daa952ba7f163c4a11628f55a4df523b3ef60405160405180910390a4611f8083838360016126bf565b505050565b611f8d611b36565b73ffffffffffffffffffffffffffffffffffffffff16611fab61115e565b73ffffffffffffffffffffffffffffffffffffffff1614612001576040517f08c379a0000000000000000000000000000000000000000000000000000000008152600401611ff890614051565b60405180910390fd5b565b600073ffffffffffffffffffffffffffffffffffffffff168273ffffffffffffffffffffffffffffffffffffffff1603612072576040517f08c379a0000000000000000000000000000000000000000000000000000000008152600401612069906140bd565b60405180910390fd5b61207b81612678565b156120bb576040517f08c379a00000000000000000000000000000000000000000000000000000000081526004016120b290614129565b60405180910390fd5b6120c96000838360016126b9565b6120d281612678565b15612112576040517f08c379a000000000000000000000000000000000000000000000000000000000815260040161210990614129565b60405180910390fd5b6001600360008473ffffffffffffffffffffffffffffffffffffffff1673ffffffffffffffffffffffffffffffffffffffff16815260200190815260200160002060008282540192505081905550816002600083815260200190815260200160002060006101000a81548173ffffffffffffffffffffffffffffffffffffffff021916908373ffffffffffffffffffffffffffffffffffffffff160217905550808273ffffffffffffffffffffffffffffffffffffffff16600073ffffffffffffffffffffffffffffffffffffffff167fddf252ad1be2c89b69c2b068fc378daa952ba7f163c4a11628f55a4df523b3ef60405160405180910390a461221c6000838360016126bf565b5050565b61222982612678565b612268576040517f08c379a000000000000000000000000000000000000000000000000000000000815260040161225f906141bb565b60405180910390fd5b806006600084815260200190815260200160002090816122889190613b8a565b507ff8e1a15aba9398e019f0b49df1a4fde98ee17ae345cb5f6b5e2c27f5033e8ce7826040516122b89190612f5c565b60405180910390a15050565b60006002600083815260200190815260200160002060009054906101000a900473ffffffffffffffffffffffffffffffffffffffff169050919050565b6000600760009054906101000a900473ffffffffffffffffffffffffffffffffffffffff16905081600760006101000a81548173ffffffffffffffffffffffffffffffffffffffff021916908373ffffffffffffffffffffffffffffffffffffffff1602179055508173ffffffffffffffffffffffffffffffffffffffff168173ffffffffffffffffffffffffffffffffffffffff167f8be0079c531659141344cd1fd0a4f28419497f9722a3daafe3b4186f6b6457e060405160405180910390a35050565b8173ffffffffffffffffffffffffffffffffffffffff168373ffffffffffffffffffffffffffffffffffffffff1603612435576040517f08c379a000000000000000000000000000000000000000000000000000000000815260040161242c90614227565b60405180910390fd5b80600560008573ffffffffffffffffffffffffffffffffffffffff1673ffffffffffffffffffffffffffffffffffffffff16815260200190815260200160002060008473ffffffffffffffffffffffffffffffffffffffff1673ffffffffffffffffffffffffffffffffffffffff16815260200190815260200160002060006101000a81548160ff0219169083151502179055508173ffffffffffffffffffffffffffffffffffffffff168373ffffffffffffffffffffffffffffffffffffffff167f17307eab39ab6107e8899845ad3d59bd9653f200f220920489ca2b5937696c31836040516125269190612b44565b60405180910390a3505050565b61253e848484611c8c565b61254a848484846126c5565b612589576040517f08c379a0000000000000000000000000000000000000000000000000000000008152600401612580906142b9565b60405180910390fd5b50505050565b606060405180602001604052806000815250905090565b60606125b182611aeb565b60006125bb61258f565b905060008151116125db5760405180602001604052806000815250612606565b806125e58461284c565b6040516020016125f6929190613dbf565b6040516020818303038152906040525b915050919050565b60007f01ffc9a7000000000000000000000000000000000000000000000000000000007bffffffffffffffffffffffffffffffffffffffffffffffffffffffff1916827bffffffffffffffffffffffffffffffffffffffffffffffffffffffff1916149050919050565b60008073ffffffffffffffffffffffffffffffffffffffff1661269a836122c4565b73ffffffffffffffffffffffffffffffffffffffff1614159050919050565b50505050565b50505050565b60006126e68473ffffffffffffffffffffffffffffffffffffffff1661291a565b1561283f578373ffffffffffffffffffffffffffffffffffffffff1663150b7a0261270f611b36565b8786866040518563ffffffff1660e01b8152600401612731949392919061432e565b6020604051808303816000875af192505050801561276d57506040513d601f19601f8201168201806040525081019061276a919061438f565b60015b6127ef573d806000811461279d576040519150601f19603f3d011682016040523d82523d6000602084013e6127a2565b606091505b5060008151036127e7576040517f08c379a00000000000000000000000000000000000000000000000000000000081526004016127de906142b9565b60405180910390fd5b805181602001fd5b63150b7a0260e01b7bffffffffffffffffffffffffffffffffffffffffffffffffffffffff1916817bffffffffffffffffffffffffffffffffffffffffffffffffffffffff191614915050612844565b600190505b949350505050565b60606000600161285b8461293d565b01905060008167ffffffffffffffff81111561287a576128796130ac565b5b6040519080825280601f01601f1916602001820160405280156128ac5781602001600182028036833780820191505090505b509050600082602001820190505b60011561290f578080600190039150507f3031323334353637383961626364656600000000000000000000000000000000600a86061a8153600a8581612903576129026143bc565b5b049450600085036128ba575b819350505050919050565b6000808273ffffffffffffffffffffffffffffffffffffffff163b119050919050565b600080600090507a184f03e93ff9f4daa797ed6e38ed64bf6a1f010000000000000000831061299b577a184f03e93ff9f4daa797ed6e38ed64bf6a1f0100000000000000008381612991576129906143bc565b5b0492506040810190505b6d04ee2d6d415b85acef810000000083106129d8576d04ee2d6d415b85acef810000000083816129ce576129cd6143bc565b5b0492506020810190505b662386f26fc100008310612a0757662386f26fc1000083816129fd576129fc6143bc565b5b0492506010810190505b6305f5e1008310612a30576305f5e1008381612a2657612a256143bc565b5b0492506008810190505b6127108310612a55576127108381612a4b57612a4a6143bc565b5b0492506004810190505b60648310612a785760648381612a6e57612a6d6143bc565b5b0492506002810190505b600a8310612a87576001810190505b80915050919050565b6000604051905090565b600080fd5b600080fd5b60007fffffffff0000000000000000000000000000000000000000000000000000000082169050919050565b612ad981612aa4565b8114612ae457600080fd5b50565b600081359050612af681612ad0565b92915050565b600060208284031215612b1257612b11612a9a565b5b6000612b2084828501612ae7565b91505092915050565b60008115159050919050565b612b3e81612b29565b82525050565b6000602082019050612b596000830184612b35565b92915050565b600081519050919050565b600082825260208201905092915050565b60005b83811015612b99578082015181840152602081019050612b7e565b60008484015250505050565b6000601f19601f8301169050919050565b6000612bc182612b5f565b612bcb8185612b6a565b9350612bdb818560208601612b7b565b612be481612ba5565b840191505092915050565b60006020820190508181036000830152612c098184612bb6565b905092915050565b6000819050919050565b612c2481612c11565b8114612c2f57600080fd5b50565b600081359050612c4181612c1b565b92915050565b600060208284031215612c5d57612c5c612a9a565b5b6000612c6b84828501612c32565b91505092915050565b600073ffffffffffffffffffffffffffffffffffffffff82169050919050565b6000612c9f82612c74565b9050919050565b612caf81612c94565b82525050565b6000602082019050612cca6000830184612ca6565b92915050565b612cd981612c94565b8114612ce457600080fd5b50565b600081359050612cf681612cd0565b92915050565b600060208284031215612d1257612d11612a9a565b5b6000612d2084828501612ce7565b91505092915050565b60008060408385031215612d4057612d3f612a9a565b5b6000612d4e85828601612ce7565b9250506020612d5f85828601612c32565b9150509250929050565b600080600060608486031215612d8257612d81612a9a565b5b6000612d9086828701612ce7565b9350506020612da186828701612ce7565b9250506040612db286828701612c32565b9150509250925092565b6000819050919050565b6000612de1612ddc612dd784612c74565b612dbc565b612c74565b9050919050565b6000612df382612dc6565b9050919050565b6000612e0582612de8565b9050919050565b612e1581612dfa565b82525050565b6000602082019050612e306000830184612e0c565b92915050565b600081519050919050565b600082825260208201905092915050565b6000819050602082019050919050565b612e6b81612c11565b82525050565b6000612e7d8383612e62565b60208301905092915050565b6000602082019050919050565b6000612ea182612e36565b612eab8185612e41565b9350612eb683612e52565b8060005b83811015612ee7578151612ece8882612e71565b9750612ed983612e89565b925050600181019050612eba565b5085935050505092915050565b60006020820190508181036000830152612f0e8184612e96565b905092915050565b612f1f81612c11565b82525050565b6000606082019050612f3a6000830186612f16565b612f476020830185612f16565b612f546040830184612b35565b949350505050565b6000602082019050612f716000830184612f16565b92915050565b7f4e487b7100000000000000000000000000000000000000000000000000000000600052602160045260246000fd5b60028110612fb757612fb6612f77565b5b50565b6000819050612fc882612fa6565b919050565b6000612fd882612fba565b9050919050565b612fe881612fcd565b82525050565b6000819050919050565b61300181612fee565b82525050565b600060e08201905061301c600083018a612ca6565b6130296020830189612fdf565b818103604083015261303b8188612bb6565b905061304a6060830187612ff8565b6130576080830186612b35565b61306460a0830185612b35565b61307160c0830184612f16565b98975050505050505050565b6002811061308a57600080fd5b50565b60008135905061309c8161307d565b92915050565b600080fd5b600080fd5b7f4e487b7100000000000000000000000000000000000000000000000000000000600052604160045260246000fd5b6130e482612ba5565b810181811067ffffffffffffffff82111715613103576131026130ac565b5b80604052505050565b6000613116612a90565b905061312282826130db565b919050565b600067ffffffffffffffff821115613142576131416130ac565b5b61314b82612ba5565b9050602081019050919050565b82818337600083830152505050565b600061317a61317584613127565b61310c565b905082815260208101848484011115613196576131956130a7565b5b6131a1848285613158565b509392505050565b600082601f8301126131be576131bd6130a2565b5b81356131ce848260208601613167565b91505092915050565b6131e081612fee565b81146131eb57600080fd5b50565b6000813590506131fd816131d7565b92915050565b60008060006060848603121561321c5761321b612a9a565b5b600061322a8682870161308d565b935050602084013567ffffffffffffffff81111561324b5761324a612a9f565b5b613257868287016131a9565b9250506040613268868287016131ee565b9150509250925092565b61327b81612b29565b811461328657600080fd5b50565b60008135905061329881613272565b92915050565b600080604083850312156132b5576132b4612a9a565b5b60006132c385828601612ce7565b92505060206132d485828601613289565b9150509250929050565b600067ffffffffffffffff8211156132f9576132f86130ac565b5b61330282612ba5565b9050602081019050919050565b600061332261331d846132de565b61310c565b90508281526020810184848401111561333e5761333d6130a7565b5b613349848285613158565b509392505050565b600082601f830112613366576133656130a2565b5b813561337684826020860161330f565b91505092915050565b6000806000806080858703121561339957613398612a9a565b5b60006133a787828801612ce7565b94505060206133b887828801612ce7565b93505060406133c987828801612c32565b925050606085013567ffffffffffffffff8111156133ea576133e9612a9f565b5b6133f687828801613351565b91505092959194509250565b600061340d82612c74565b9050919050565b61341d81613402565b811461342857600080fd5b50565b60008135905061343a81613414565b92915050565b60006020828403121561345657613455612a9a565b5b60006134648482850161342b565b91505092915050565b6000806040838503121561348457613483612a9a565b5b600061349285828601612ce7565b92505060206134a385828601612ce7565b9150509250929050565b7f4e487b7100000000000000000000000000000000000000000000000000000000600052602260045260246000fd5b600060028204905060018216806134f457607f821691505b602082108103613507576135066134ad565b5b50919050565b7f4552433732313a20617070726f76616c20746f2063757272656e74206f776e6560008201527f7200000000000000000000000000000000000000000000000000000000000000602082015250565b6000613569602183612b6a565b91506135748261350d565b604082019050919050565b600060208201905081810360008301526135988161355c565b9050919050565b7f4552433732313a20617070726f76652063616c6c6572206973206e6f7420746f60008201527f6b656e206f776e6572206f7220617070726f76656420666f7220616c6c000000602082015250565b60006135fb603d83612b6a565b91506136068261359f565b604082019050919050565b6000602082019050818103600083015261362a816135ee565b9050919050565b7f4552433732313a2063616c6c6572206973206e6f7420746f6b656e206f776e6560008201527f72206f7220617070726f76656400000000000000000000000000000000000000602082015250565b600061368d602d83612b6a565b915061369882613631565b604082019050919050565b600060208201905081810360008301526136bc81613680565b9050919050565b7f4e6f206170706c69636174696f6e000000000000000000000000000000000000600082015250565b60006136f9600e83612b6a565b9150613704826136c3565b602082019050919050565b60006020820190508181036000830152613728816136ec565b9050919050565b7f4e6f742076657269666965640000000000000000000000000000000000000000600082015250565b6000613765600c83612b6a565b91506137708261372f565b602082019050919050565b6000602082019050818103600083015261379481613758565b9050919050565b7f416c726561647920617070726f76656400000000000000000000000000000000600082015250565b60006137d1601083612b6a565b91506137dc8261379b565b602082019050919050565b60006020820190508181036000830152613800816137c4565b9050919050565b7f4e487b7100000000000000000000000000000000000000000000000000000000600052601160045260246000fd5b600061384182612c11565b91507fffffffffffffffffffffffffffffffffffffffffffffffffffffffffffffffff820361387357613872613807565b5b600182019050919050565b7f4552433732313a20696e76616c696420746f6b656e2049440000000000000000600082015250565b60006138b4601883612b6a565b91506138bf8261387e565b602082019050919050565b600060208201905081810360008301526138e3816138a7565b9050919050565b7f4552433732313a2061646472657373207a65726f206973206e6f74206120766160008201527f6c6964206f776e65720000000000000000000000000000000000000000000000602082015250565b6000613946602983612b6a565b9150613951826138ea565b604082019050919050565b6000602082019050818103600083015261397581613939565b9050919050565b7f416c7265616479206170706c6965640000000000000000000000000000000000600082015250565b60006139b2600f83612b6a565b91506139bd8261397c565b602082019050919050565b600060208201905081810360008301526139e1816139a5565b9050919050565b60008190508160005260206000209050919050565b60006020601f8301049050919050565b600082821b905092915050565b600060088302613a4a7fffffffffffffffffffffffffffffffffffffffffffffffffffffffffffffffff82613a0d565b613a548683613a0d565b95508019841693508086168417925050509392505050565b6000613a87613a82613a7d84612c11565b612dbc565b612c11565b9050919050565b6000819050919050565b613aa183613a6c565b613ab5613aad82613a8e565b848454613a1a565b825550505050565b600090565b613aca613abd565b613ad5818484613a98565b505050565b5b81811015613af957613aee600082613ac2565b600181019050613adb565b5050565b601f821115613b3e57613b0f816139e8565b613b18846139fd565b81016020851015613b27578190505b613b3b613b33856139fd565b830182613ada565b50505b505050565b600082821c905092915050565b6000613b6160001984600802613b43565b1980831691505092915050565b6000613b7a8383613b50565b9150826002028217905092915050565b613b9382612b5f565b67ffffffffffffffff811115613bac57613bab6130ac565b5b613bb682546134dc565b613bc1828285613afd565b600060209050601f831160018114613bf45760008415613be2578287015190505b613bec8582613b6e565b865550613c54565b601f198416613c02866139e8565b60005b82811015613c2a57848901518255600182019150602085019450602081019050613c05565b86831015613c475784890151613c43601f891682613b50565b8355505b6001600288020188555050505b505050505050565b6000602082019050613c716000830184612ff8565b92915050565b7f4e6f74204e4654206f776e657200000000000000000000000000000000000000600082015250565b6000613cad600d83612b6a565b9150613cb882613c77565b602082019050919050565b60006020820190508181036000830152613cdc81613ca0565b9050919050565b7f416c72656164792066756c6c7920726570616964000000000000000000000000600082015250565b6000613d19601483612b6a565b9150613d2482613ce3565b602082019050919050565b60006020820190508181036000830152613d4881613d0c565b9050919050565b6000613d5a82612c11565b9150613d6583612c11565b9250828201905080821115613d7d57613d7c613807565b5b92915050565b600081905092915050565b6000613d9982612b5f565b613da38185613d83565b9350613db3818560208601612b7b565b80840191505092915050565b6000613dcb8285613d8e565b9150613dd78284613d8e565b91508190509392505050565b7f4e6f2062616c616e636500000000000000000000000000000000000000000000600082015250565b6000613e19600a83612b6a565b9150613e2482613de3565b602082019050919050565b60006020820190508181036000830152613e4881613e0c565b9050919050565b7f4f776e61626c653a206e6577206f776e657220697320746865207a65726f206160008201527f6464726573730000000000000000000000000000000000000000000000000000602082015250565b6000613eab602683612b6a565b9150613eb682613e4f565b604082019050919050565b60006020820190508181036000830152613eda81613e9e565b9050919050565b7f4552433732313a207472616e736665722066726f6d20696e636f72726563742060008201527f6f776e6572000000000000000000000000000000000000000000000000000000602082015250565b6000613f3d602583612b6a565b9150613f4882613ee1565b604082019050919050565b60006020820190508181036000830152613f6c81613f30565b9050919050565b7f4552433732313a207472616e7366657220746f20746865207a65726f2061646460008201527f7265737300000000000000000000000000000000000000000000000000000000602082015250565b6000613fcf602483612b6a565b9150613fda82613f73565b604082019050919050565b60006020820190508181036000830152613ffe81613fc2565b9050919050565b7f4f776e61626c653a2063616c6c6572206973206e6f7420746865206f776e6572600082015250565b600061403b602083612b6a565b915061404682614005565b602082019050919050565b6000602082019050818103600083015261406a8161402e565b9050919050565b7f4552433732313a206d696e7420746f20746865207a65726f2061646472657373600082015250565b60006140a7602083612b6a565b91506140b282614071565b602082019050919050565b600060208201905081810360008301526140d68161409a565b9050919050565b7f4552433732313a20746f6b656e20616c7265616479206d696e74656400000000600082015250565b6000614113601c83612b6a565b915061411e826140dd565b602082019050919050565b6000602082019050818103600083015261414281614106565b9050919050565b7f45524337323155524953746f726167653a2055524920736574206f66206e6f6e60008201527f6578697374656e7420746f6b656e000000000000000000000000000000000000602082015250565b60006141a5602e83612b6a565b91506141b082614149565b604082019050919050565b600060208201905081810360008301526141d481614198565b9050919050565b7f4552433732313a20617070726f766520746f2063616c6c657200000000000000600082015250565b6000614211601983612b6a565b915061421c826141db565b602082019050919050565b6000602082019050818103600083015261424081614204565b9050919050565b7f4552433732313a207472616e7366657220746f206e6f6e20455243373231526560008201527f63656976657220696d706c656d656e7465720000000000000000000000000000602082015250565b60006142a3603283612b6a565b91506142ae82614247565b604082019050919050565b600060208201905081810360008301526142d281614296565b9050919050565b600081519050919050565b600082825260208201905092915050565b6000614300826142d9565b61430a81856142e4565b935061431a818560208601612b7b565b61432381612ba5565b840191505092915050565b60006080820190506143436000830187612ca6565b6143506020830186612ca6565b61435d6040830185612f16565b818103606083015261436f81846142f5565b905095945050505050565b60008151905061438981612ad0565b92915050565b6000602082840312156143a5576143a4612a9a565b5b60006143b38482850161437a565b91505092915050565b7f4e487b7100000000000000000000000000000000000000000000000000000000600052601260045260246000fdfea264697066735822122055d4e7619bb3b797e2c421e38c9f76c04a46593630d86437fdc62874a6ab2c6064736f6c634300081c0033",
  "linkReferences": {},
  "deployedLinkReferences": {}
}