{
  "_format": "hh-sol-artifact-1",
  "contractName": "DonationVault",
  "sourceName": "contracts/DonationVault.sol",
  "abi": [
    {
      "inputs": [
        {
          "internalType": "address",
          "name": "_eduTokenAddress",
          "type": "address"
        }
      ],
      "stateMutability": "nonpayable",
      "type": "constructor"
    },
    {
      "anonymous": false,
      "inputs": [
        {
          "indexed": true,
          "internalType": "address",
          "name": "donor",
          "type": "address"
        },
        {
          "indexed": false,
          "internalType": "uint256",
          "name": "amount",
          "type": "uint256"
        }
      ],
      "name": "DonationMade",
      "type": "event"
    },
    {
      "anonymous": false,
      "inputs": [
        {
          "indexed": true,
          "internalType": "address",
          "name": "recipient",
          "type": "address"
        },
        {
          "indexed": false,
          "internalType": "uint256",
          "name": "amount",
          "type": "uint256"
        }
      ],
      "name": "FundsReleased",
      "type": "event"
    },
    {
      "anonymous": false,
      "inputs": [
        {
          "indexed": true,
          "internalType": "address",
          "name": "previousOwner",
          "type": "address"
        },
        {
          "indexed": true,
          "internalType": "address",
          "name": "newOwner",
          "type": "address"
        }
      ],
      "name": "OwnershipTransferred",
      "type": "event"
    },
    {
      "inputs": [],
      "name": "donate",
      "outputs": [],
      "stateMutability": "payable",
      "type": "function"
    },
    {
      "inputs": [],
      "name": "eduToken",
      "outputs": [
        {
          "internalType": "contract IEduToken",
          "name": "",
          "type": "address"
        }
      ],
      "stateMutability": "view",
      "type": "function"
    },
    {
      "inputs": [
        {
          "internalType": "address",
          "name": "donor",
          "type": "address"
        }
      ],
      "name": "getDonationsByUser",
      "outputs": [
        {
          "components": [
            {
              "internalType": "uint256",
              "name": "amount",
              "type": "uint256"
            },
            {
              "internalType": "uint256",
              "name": "timestamp",
              "type": "uint256"
            }
          ],
          "internalType": "struct DonationVault.Donation[]",
          "name": "",
          "type": "tuple[]"
        }
      ],
      "stateMutability": "view",
      "type": "function"
    },
    {
      "inputs": [
        {
          "internalType": "address",
          "name": "donor",
          "type": "address"
        }
      ],
      "name": "getLatestDonation",
      "outputs": [
        {
          "components": [
            {
              "internalType": "uint256",
              "name": "amount",
              "type": "uint256"
            },
            {
              "internalType": "uint256",
              "name": "timestamp",
              "type": "uint256"
            }
          ],
          "internalType": "struct DonationVault.Donation",
          "name": "",
          "type": "tuple"
        }
      ],
      "stateMutability": "view",
      "type": "function"
    },
    {
      "inputs": [],
      "name": "numberOfDonors",
      "outputs": [
        {
          "internalType": "uint256",
          "name": "",
          "type": "uint256"
        }
      ],
      "stateMutability": "view",
      "type": "function"
    },
    {
      "inputs": [],
      "name": "owner",
      "outputs": [
        {
          "internalType": "address",
          "name": "",
          "type": "address"
        }
      ],
      "stateMutability": "view",
      "type": "function"
    },
    {
      "inputs": [
        {
          "internalType": "address payable",
          "name": "recipient",
          "type": "address"
        },
        {
          "internalType": "uint256",
          "name": "amount",
          "type": "uint256"
        }
      ],
      "name": "releaseFunds",
      "outputs": [],
      "stateMutability": "nonpayable",
      "type": "function"
    },
    {
      "inputs": [],
      "name": "renounceOwnership",
      "outputs": [],
      "stateMutability": "nonpayable",
      "type": "function"
    },
    {
      "inputs": [
        {
          "internalType": "address",
          "name": "",
          "type": "address"
        }
      ],
      "name": "totalDonatedByUser",
      "outputs": [
        {
          "internalType": "uint256",
          "name": "",
          "type": "uint256"
        }
      ],
      "stateMutability": "view",
      "type": "function"
    },
    {
      "inputs": [],
      "name": "totalDonations",
      "outputs": [
        {
          "internalType": "uint256",
          "name": "",
          "type": "uint256"
        }
      ],
      "stateMutability": "view",
      "type": "function"
    },
    {
      "inputs": [
        {
          "internalType": "address",
          "name": "newOwner",
          "type": "address"
        }
      ],
      "name": "transferOwnership",
      "outputs": [],
      "stateMutability": "nonpayable",
      "type": "function"
    }
  ],
  "bytecode": "0x608060405234801561001057600080fd5b5060405161158338038061158383398181016040528101906100329190610233565b61004e61004361010460201b60201c565b61010c60201b60201c565b600073ffffffffffffffffffffffffffffffffffffffff168173ffffffffffffffffffffffffffffffffffffffff16036100bd576040517f08c379a00000000000000000000000000000000000000000000000000000000081526004016100b4906102bd565b60405180910390fd5b80600160006101000a81548173ffffffffffffffffffffffffffffffffffffffff021916908373ffffffffffffffffffffffffffffffffffffffff160217905550506102dd565b600033905090565b60008060009054906101000a900473ffffffffffffffffffffffffffffffffffffffff169050816000806101000a81548173ffffffffffffffffffffffffffffffffffffffff021916908373ffffffffffffffffffffffffffffffffffffffff1602179055508173ffffffffffffffffffffffffffffffffffffffff168173ffffffffffffffffffffffffffffffffffffffff167f8be0079c531659141344cd1fd0a4f28419497f9722a3daafe3b4186f6b6457e060405160405180910390a35050565b600080fd5b600073ffffffffffffffffffffffffffffffffffffffff82169050919050565b6000610200826101d5565b9050919050565b610210816101f5565b811461021b57600080fd5b50565b60008151905061022d81610207565b92915050565b600060208284031215610249576102486101d0565b5b60006102578482850161021e565b91505092915050565b600082825260208201905092915050565b7f496e76616c696420746f6b656e20616464726573730000000000000000000000600082015250565b60006102a7601583610260565b91506102b282610271565b602082019050919050565b600060208201905081810360008301526102d68161029a565b9050919050565b611297806102ec6000396000f3fe60806040526004361061009c5760003560e01c80638d878889116100645780638d8788891461019a5780638da5cb5b146101c5578063d6e982e5146101f0578063de2ed89314610219578063ed88c68e14610244578063f2fde38b1461024e5761009c565b806332cb805c146100a15780633acaa530146100de57806364b2e2d91461011b578063715018a614610146578063866357b51461015d575b600080fd5b3480156100ad57600080fd5b506100c860048036038101906100c39190610b4b565b610277565b6040516100d59190610c6f565b60405180910390f35b3480156100ea57600080fd5b5061010560048036038101906101009190610b4b565b610329565b6040516101129190610cc0565b60405180910390f35b34801561012757600080fd5b50610130610489565b60405161013d9190610cea565b60405180910390f35b34801561015257600080fd5b5061015b61048f565b005b34801561016957600080fd5b50610184600480360381019061017f9190610b4b565b6104a3565b6040516101919190610cea565b60405180910390f35b3480156101a657600080fd5b506101af6104bb565b6040516101bc9190610d64565b60405180910390f35b3480156101d157600080fd5b506101da6104e1565b6040516101e79190610d8e565b60405180910390f35b3480156101fc57600080fd5b5061021760048036038101906102129190610e13565b61050a565b005b34801561022557600080fd5b5061022e61065d565b60405161023b9190610cea565b60405180910390f35b61024c610663565b005b34801561025a57600080fd5b5061027560048036038101906102709190610b4b565b610901565b005b6060600260008373ffffffffffffffffffffffffffffffffffffffff1673ffffffffffffffffffffffffffffffffffffffff168152602001908152602001600020805480602002602001604051908101604052809291908181526020016000905b8282101561031e578382906000526020600020906002020160405180604001604052908160008201548152602001600182015481525050815260200190600101906102d8565b505050509050919050565b610331610ace565b6000600260008473ffffffffffffffffffffffffffffffffffffffff1673ffffffffffffffffffffffffffffffffffffffff16815260200190815260200160002080549050116103b6576040517f08c379a00000000000000000000000000000000000000000000000000000000081526004016103ad90610eb0565b60405180910390fd5b600260008373ffffffffffffffffffffffffffffffffffffffff1673ffffffffffffffffffffffffffffffffffffffff1681526020019081526020016000206001600260008573ffffffffffffffffffffffffffffffffffffffff1673ffffffffffffffffffffffffffffffffffffffff168152602001908152602001600020805490506104449190610eff565b8154811061045557610454610f33565b5b9060005260206000209060020201604051806040016040529081600082015481526020016001820154815250509050919050565b60055481565b610497610984565b6104a16000610a02565b565b60036020528060005260406000206000915090505481565b600160009054906101000a900473ffffffffffffffffffffffffffffffffffffffff1681565b60008060009054906101000a900473ffffffffffffffffffffffffffffffffffffffff16905090565b610512610984565b600073ffffffffffffffffffffffffffffffffffffffff168273ffffffffffffffffffffffffffffffffffffffff1603610581576040517f08c379a000000000000000000000000000000000000000000000000000000000815260040161057890610fae565b60405180910390fd5b804710156105c4576040517f08c379a00000000000000000000000000000000000000000000000000000000081526004016105bb9061101a565b60405180910390fd5b8173ffffffffffffffffffffffffffffffffffffffff166108fc829081150290604051600060405180830381858888f1935050505015801561060a573d6000803e3d6000fd5b508173ffffffffffffffffffffffffffffffffffffffff167f221c08a06b07a64803b3787861a3f276212fcccb51c2e6234077a9b8cb13047a826040516106519190610cea565b60405180910390a25050565b60045481565b600034116106a6576040517f08c379a000000000000000000000000000000000000000000000000000000000815260040161069d90611086565b60405180910390fd5b6000600360003373ffffffffffffffffffffffffffffffffffffffff1673ffffffffffffffffffffffffffffffffffffffff16815260200190815260200160002054036107085760016005600082825461070091906110a6565b925050819055505b600260003373ffffffffffffffffffffffffffffffffffffffff1673ffffffffffffffffffffffffffffffffffffffff16815260200190815260200160002060405180604001604052803481526020014281525090806001815401808255809150506001900390600052602060002090600202016000909190919091506000820151816000015560208201518160010155505034600360003373ffffffffffffffffffffffffffffffffffffffff1673ffffffffffffffffffffffffffffffffffffffff16815260200190815260200160002060008282546107ea91906110a6565b92505081905550346004600082825461080391906110a6565b92505081905550600066038d7ea4c680003461081f9190611109565b9050600160009054906101000a900473ffffffffffffffffffffffffffffffffffffffff1673ffffffffffffffffffffffffffffffffffffffff166340c10f1933836040518363ffffffff1660e01b815260040161087e92919061113a565b600060405180830381600087803b15801561089857600080fd5b505af11580156108ac573d6000803e3d6000fd5b505050503373ffffffffffffffffffffffffffffffffffffffff167faa13962bc79c7a0bc42cb8169b1705f0a6b55cc404ffb8a589d771ca78675978346040516108f69190610cea565b60405180910390a250565b610909610984565b600073ffffffffffffffffffffffffffffffffffffffff168173ffffffffffffffffffffffffffffffffffffffff1603610978576040517f08c379a000000000000000000000000000000000000000000000000000000000815260040161096f906111d5565b60405180910390fd5b61098181610a02565b50565b61098c610ac6565b73ffffffffffffffffffffffffffffffffffffffff166109aa6104e1565b73ffffffffffffffffffffffffffffffffffffffff1614610a00576040517f08c379a00000000000000000000000000000000000000000000000000000000081526004016109f790611241565b60405180910390fd5b565b60008060009054906101000a900473ffffffffffffffffffffffffffffffffffffffff169050816000806101000a81548173ffffffffffffffffffffffffffffffffffffffff021916908373ffffffffffffffffffffffffffffffffffffffff1602179055508173ffffffffffffffffffffffffffffffffffffffff168173ffffffffffffffffffffffffffffffffffffffff167f8be0079c531659141344cd1fd0a4f28419497f9722a3daafe3b4186f6b6457e060405160405180910390a35050565b600033905090565b604051806040016040528060008152602001600081525090565b600080fd5b600073ffffffffffffffffffffffffffffffffffffffff82169050919050565b6000610b1882610aed565b9050919050565b610b2881610b0d565b8114610b3357600080fd5b50565b600081359050610b4581610b1f565b92915050565b600060208284031215610b6157610b60610ae8565b5b6000610b6f84828501610b36565b91505092915050565b600081519050919050565b600082825260208201905092915050565b6000819050602082019050919050565b6000819050919050565b610bb781610ba4565b82525050565b604082016000820151610bd36000850182610bae565b506020820151610be66020850182610bae565b50505050565b6000610bf88383610bbd565b60408301905092915050565b6000602082019050919050565b6000610c1c82610b78565b610c268185610b83565b9350610c3183610b94565b8060005b83811015610c62578151610c498882610bec565b9750610c5483610c04565b925050600181019050610c35565b5085935050505092915050565b60006020820190508181036000830152610c898184610c11565b905092915050565b604082016000820151610ca76000850182610bae565b506020820151610cba6020850182610bae565b50505050565b6000604082019050610cd56000830184610c91565b92915050565b610ce481610ba4565b82525050565b6000602082019050610cff6000830184610cdb565b92915050565b6000819050919050565b6000610d2a610d25610d2084610aed565b610d05565b610aed565b9050919050565b6000610d3c82610d0f565b9050919050565b6000610d4e82610d31565b9050919050565b610d5e81610d43565b82525050565b6000602082019050610d796000830184610d55565b92915050565b610d8881610b0d565b82525050565b6000602082019050610da36000830184610d7f565b92915050565b6000610db482610aed565b9050919050565b610dc481610da9565b8114610dcf57600080fd5b50565b600081359050610de181610dbb565b92915050565b610df081610ba4565b8114610dfb57600080fd5b50565b600081359050610e0d81610de7565b92915050565b60008060408385031215610e2a57610e29610ae8565b5b6000610e3885828601610dd2565b9250506020610e4985828601610dfe565b9150509250929050565b600082825260208201905092915050565b7f4e6f20646f6e6174696f6e7320666f756e6420666f7220757365720000000000600082015250565b6000610e9a601b83610e53565b9150610ea582610e64565b602082019050919050565b60006020820190508181036000830152610ec981610e8d565b9050919050565b7f4e487b7100000000000000000000000000000000000000000000000000000000600052601160045260246000fd5b6000610f0a82610ba4565b9150610f1583610ba4565b9250828203905081811115610f2d57610f2c610ed0565b5b92915050565b7f4e487b7100000000000000000000000000000000000000000000000000000000600052603260045260246000fd5b7f496e76616c696420726563697069656e74000000000000000000000000000000600082015250565b6000610f98601183610e53565b9150610fa382610f62565b602082019050919050565b60006020820190508181036000830152610fc781610f8b565b9050919050565b7f496e73756666696369656e742062616c616e6365000000000000000000000000600082015250565b6000611004601483610e53565b915061100f82610fce565b602082019050919050565b6000602082019050818103600083015261103381610ff7565b9050919050565b7f446f6e6174696f6e206d7573742062652067726561746572207468616e203000600082015250565b6000611070601f83610e53565b915061107b8261103a565b602082019050919050565b6000602082019050818103600083015261109f81611063565b9050919050565b60006110b182610ba4565b91506110bc83610ba4565b92508282019050808211156110d4576110d3610ed0565b5b92915050565b7f4e487b7100000000000000000000000000000000000000000000000000000000600052601260045260246000fd5b600061111482610ba4565b915061111f83610ba4565b92508261112f5761112e6110da565b5b828204905092915050565b600060408201905061114f6000830185610d7f565b61115c6020830184610cdb565b9392505050565b7f4f776e61626c653a206e6577206f776e657220697320746865207a65726f206160008201527f6464726573730000000000000000000000000000000000000000000000000000602082015250565b60006111bf602683610e53565b91506111ca82611163565b604082019050919050565b600060208201905081810360008301526111ee816111b2565b9050919050565b7f4f776e61626c653a2063616c6c6572206973206e6f7420746865206f776e6572600082015250565b600061122b602083610e53565b9150611236826111f5565b602082019050919050565b6000602082019050818103600083015261125a8161121e565b905091905056fea2646970667358221220db3c651b9e81fc62d24650eec70e95b2b68c54fead042cde18689c5b91e4da3264736f6c634300081c0033",
  "linkReferences": {},
  "deployedLinkReferences": {}
}