{
  "_format": "hh-sol-artifact-1",
  "contractName": "SchoolStudentRegistry",
  "sourceName": "contracts/SchoolStudentRedistry.sol",
  "abi": [
    {
      "inputs": [],
      "stateMutability": "nonpayable",
      "type": "constructor"
    },
    {
      "anonymous": false,
      "inputs": [
        {
          "indexed": true,
          "internalType": "address",
          "name": "previousOwner",
          "type": "address"
        },
        {
          "indexed": true,
          "internalType": "address",
          "name": "newOwner",
          "type": "address"
        }
      ],
      "name": "OwnershipTransferred",
      "type": "event"
    },
    {
      "anonymous": false,
      "inputs": [
        {
          "indexed": true,
          "internalType": "uint256",
          "name": "schoolId",
          "type": "uint256"
        },
        {
          "indexed": false,
          "internalType": "string",
          "name": "name",
          "type": "string"
        },
        {
          "indexed": false,
          "internalType": "string",
          "name": "location",
          "type": "string"
        },
        {
          "indexed": false,
          "internalType": "bool",
          "name": "isAccredited",
          "type": "bool"
        }
      ],
      "name": "SchoolRegistered",
      "type": "event"
    },
    {
      "anonymous": false,
      "inputs": [
        {
          "indexed": true,
          "internalType": "uint256",
          "name": "studentId",
          "type": "uint256"
        },
        {
          "indexed": false,
          "internalType": "uint256",
          "name": "schoolId",
          "type": "uint256"
        }
      ],
      "name": "StudentEnrolled",
      "type": "event"
    },
    {
      "anonymous": false,
      "inputs": [
        {
          "indexed": true,
          "internalType": "uint256",
          "name": "studentId",
          "type": "uint256"
        },
        {
          "indexed": false,
          "internalType": "string",
          "name": "name",
          "type": "string"
        },
        {
          "indexed": false,
          "internalType": "string",
          "name": "email",
          "type": "string"
        },
        {
          "indexed": false,
          "internalType": "uint256",
          "name": "schoolId",
          "type": "uint256"
        }
      ],
      "name": "StudentRegistered",
      "type": "event"
    },
    {
      "anonymous": false,
      "inputs": [
        {
          "indexed": true,
          "internalType": "uint256",
          "name": "studentId",
          "type": "uint256"
        }
      ],
      "name": "StudentUnenrolled",
      "type": "event"
    },
    {
      "inputs": [
        {
          "internalType": "uint256",
          "name": "_studentId",
          "type": "uint256"
        },
        {
          "internalType": "uint256",
          "name": "_newSchoolId",
          "type": "uint256"
        }
      ],
      "name": "enrollStudent",
      "outputs": [],
      "stateMutability": "nonpayable",
      "type": "function"
    },
    {
      "inputs": [
        {
          "internalType": "uint256",
          "name": "_schoolId",
          "type": "uint256"
        }
      ],
      "name": "getSchool",
      "outputs": [
        {
          "components": [
            {
              "internalType": "string",
              "name": "name",
              "type": "string"
            },
            {
              "internalType": "string",
              "name": "location",
              "type": "string"
            },
            {
              "internalType": "bool",
              "name": "isAccredited",
              "type": "bool"
            },
            {
              "internalType": "uint256",
              "name": "registrationTime",
              "type": "uint256"
            },
            {
              "internalType": "bool",
              "name": "exists",
              "type": "bool"
            }
          ],
          "internalType": "struct SchoolStudentRegistry.School",
          "name": "",
          "type": "tuple"
        }
      ],
      "stateMutability": "view",
      "type": "function"
    },
    {
      "inputs": [
        {
          "internalType": "uint256",
          "name": "_studentId",
          "type": "uint256"
        }
      ],
      "name": "getStudent",
      "outputs": [
        {
          "components": [
            {
              "internalType": "string",
              "name": "name",
              "type": "string"
            },
            {
              "internalType": "string",
              "name": "email",
              "type": "string"
            },
            {
              "internalType": "uint256",
              "name": "schoolId",
              "type": "uint256"
            },
            {
              "internalType": "bool",
              "name": "isEnrolled",
              "type": "bool"
            },
            {
              "internalType": "uint256",
              "name": "registrationTime",
              "type": "uint256"
            },
            {
              "internalType": "bool",
              "name": "exists",
              "type": "bool"
            }
          ],
          "internalType": "struct SchoolStudentRegistry.Student",
          "name": "",
          "type": "tuple"
        }
      ],
      "stateMutability": "view",
      "type": "function"
    },
    {
      "inputs": [],
      "name": "owner",
      "outputs": [
        {
          "internalType": "address",
          "name": "",
          "type": "address"
        }
      ],
      "stateMutability": "view",
      "type": "function"
    },
    {
      "inputs": [
        {
          "internalType": "string",
          "name": "_name",
          "type": "string"
        },
        {
          "internalType": "string",
          "name": "_location",
          "type": "string"
        },
        {
          "internalType": "bool",
          "name": "_isAccredited",
          "type": "bool"
        }
      ],
      "name": "registerSchool",
      "outputs": [
        {
          "internalType": "uint256",
          "name": "",
          "type": "uint256"
        }
      ],
      "stateMutability": "nonpayable",
      "type": "function"
    },
    {
      "inputs": [
        {
          "internalType": "string",
          "name": "_name",
          "type": "string"
        },
        {
          "internalType": "string",
          "name": "_email",
          "type": "string"
        },
        {
          "internalType": "uint256",
          "name": "_schoolId",
          "type": "uint256"
        }
      ],
      "name": "registerStudent",
      "outputs": [
        {
          "internalType": "uint256",
          "name": "",
          "type": "uint256"
        }
      ],
      "stateMutability": "nonpayable",
      "type": "function"
    },
    {
      "inputs": [],
      "name": "renounceOwnership",
      "outputs": [],
      "stateMutability": "nonpayable",
      "type": "function"
    },
    {
      "inputs": [],
      "name": "totalSchools",
      "outputs": [
        {
          "internalType": "uint256",
          "name": "",
          "type": "uint256"
        }
      ],
      "stateMutability": "view",
      "type": "function"
    },
    {
      "inputs": [],
      "name": "totalStudents",
      "outputs": [
        {
          "internalType": "uint256",
          "name": "",
          "type": "uint256"
        }
      ],
      "stateMutability": "view",
      "type": "function"
    },
    {
      "inputs": [
        {
          "internalType": "address",
          "name": "newOwner",
          "type": "address"
        }
      ],
      "name": "transferOwnership",
      "outputs": [],
      "stateMutability": "nonpayable",
      "type": "function"
    },
    {
      "inputs": [
        {
          "internalType": "uint256",
          "name": "_studentId",
          "type": "uint256"
        }
      ],
      "name": "unenrollStudent",
      "outputs": [],
      "stateMutability": "nonpayable",
      "type": "function"
    }
  ],
  "bytecode": "0x608060405234801561001057600080fd5b5061002d61002261003260201b60201c565b61003a60201b60201c565b6100fe565b600033905090565b60008060009054906101000a900473ffffffffffffffffffffffffffffffffffffffff169050816000806101000a81548173ffffffffffffffffffffffffffffffffffffffff021916908373ffffffffffffffffffffffffffffffffffffffff1602179055508173ffffffffffffffffffffffffffffffffffffffff168173ffffffffffffffffffffffffffffffffffffffff167f8be0079c531659141344cd1fd0a4f28419497f9722a3daafe3b4186f6b6457e060405160405180910390a35050565b611dac8061010d6000396000f3fe608060405234801561001057600080fd5b50600436106100a95760003560e01c80638ef7e36c116100715780638ef7e36c146101525780639852bf8e14610170578063d38e7ea91461018e578063d8156924146101be578063f0880d22146101ee578063f2fde38b1461020a576100a9565b8063148e0f06146100ae578063642f9163146100ca578063715018a6146100fa5780638930917b146101045780638da5cb5b14610134575b600080fd5b6100c860048036038101906100c39190611077565b610226565b005b6100e460048036038101906100df91906110b7565b61037a565b6040516100f1919061122e565b60405180910390f35b610102610578565b005b61011e600480360381019061011991906112e1565b61058c565b60405161012b9190611385565b60405180910390f35b61013c6107c7565b60405161014991906113e1565b60405180910390f35b61015a6107f0565b6040516101679190611385565b60405180910390f35b610178610801565b6040516101859190611385565b60405180910390f35b6101a860048036038101906101a391906110b7565b610812565b6040516101b59190611479565b60405180910390f35b6101d860048036038101906101d3919061149b565b610a06565b6040516101e59190611385565b60405180910390f35b610208600480360381019061020391906110b7565b610cac565b005b610224600480360381019061021f919061155c565b610dd9565b005b61022e610e5c565b6002600083815260200190815260200160002060050160009054906101000a900460ff16610291576040517f08c379a0000000000000000000000000000000000000000000000000000000008152600401610288906115e6565b60405180910390fd5b6001600082815260200190815260200160002060040160009054906101000a900460ff166102f4576040517f08c379a00000000000000000000000000000000000000000000000000000000081526004016102eb90611652565b60405180910390fd5b80600260008481526020019081526020016000206002018190555060016002600084815260200190815260200160002060030160006101000a81548160ff021916908315150217905550817fbb7f2f17e6d564d808dd9db3fdb4eef5004a9685940a349d866758ab359c29f08260405161036e9190611385565b60405180910390a25050565b610382610fca565b6002600083815260200190815260200160002060050160009054906101000a900460ff166103e5576040517f08c379a00000000000000000000000000000000000000000000000000000000081526004016103dc906115e6565b60405180910390fd5b600260008381526020019081526020016000206040518060c0016040529081600082018054610413906116a1565b80601f016020809104026020016040519081016040528092919081815260200182805461043f906116a1565b801561048c5780601f106104615761010080835404028352916020019161048c565b820191906000526020600020905b81548152906001019060200180831161046f57829003601f168201915b505050505081526020016001820180546104a5906116a1565b80601f01602080910402602001604051908101604052809291908181526020018280546104d1906116a1565b801561051e5780601f106104f35761010080835404028352916020019161051e565b820191906000526020600020905b81548152906001019060200180831161050157829003601f168201915b50505050508152602001600282015481526020016003820160009054906101000a900460ff16151515158152602001600482015481526020016005820160009054906101000a900460ff1615151515815250509050919050565b610580610e5c565b61058a6000610eda565b565b6000610596610e5c565b600086869050116105dc576040517f08c379a00000000000000000000000000000000000000000000000000000000081526004016105d39061171e565b60405180910390fd5b60008484905011610622576040517f08c379a00000000000000000000000000000000000000000000000000000000081526004016106199061178a565b60405180910390fd5b61062c6003610f9e565b60006106386003610fb4565b90506040518060a0016040528088888080601f016020809104026020016040519081016040528093929190818152602001838380828437600081840152601f19601f82011690508083019250505050505050815260200186868080601f016020809104026020016040519081016040528093929190818152602001838380828437600081840152601f19601f8201169050808301925050505050505081526020018415158152602001428152602001600115158152506001600083815260200190815260200160002060008201518160000190816107169190611985565b50602082015181600101908161072c9190611985565b5060408201518160020160006101000a81548160ff0219169083151502179055506060820151816003015560808201518160040160006101000a81548160ff021916908315150217905550905050807fde9af02bb49c52bfe901ea2fe29aadf5dad4ea7e72b23ac7bf4677fa6306d66488888888886040516107b2959493929190611aa2565b60405180910390a28091505095945050505050565b60008060009054906101000a900473ffffffffffffffffffffffffffffffffffffffff16905090565b60006107fc6003610fb4565b905090565b600061080d6004610fb4565b905090565b61081a611004565b6001600083815260200190815260200160002060040160009054906101000a900460ff1661087d576040517f08c379a000000000000000000000000000000000000000000000000000000000815260040161087490611652565b60405180910390fd5b600160008381526020019081526020016000206040518060a00160405290816000820180546108ab906116a1565b80601f01602080910402602001604051908101604052809291908181526020018280546108d7906116a1565b80156109245780601f106108f957610100808354040283529160200191610924565b820191906000526020600020905b81548152906001019060200180831161090757829003601f168201915b5050505050815260200160018201805461093d906116a1565b80601f0160208091040260200160405190810160405280929190818152602001828054610969906116a1565b80156109b65780601f1061098b576101008083540402835291602001916109b6565b820191906000526020600020905b81548152906001019060200180831161099957829003601f168201915b505050505081526020016002820160009054906101000a900460ff16151515158152602001600382015481526020016004820160009054906101000a900460ff1615151515815250509050919050565b6000808686905011610a4d576040517f08c379a0000000000000000000000000000000000000000000000000000000008152600401610a4490611b37565b60405180910390fd5b60008484905011610a93576040517f08c379a0000000000000000000000000000000000000000000000000000000008152600401610a8a90611ba3565b60405180910390fd5b6001600083815260200190815260200160002060040160009054906101000a900460ff16610af6576040517f08c379a0000000000000000000000000000000000000000000000000000000008152600401610aed90611652565b60405180910390fd5b610b006004610f9e565b6000610b0c6004610fb4565b90506040518060c0016040528088888080601f016020809104026020016040519081016040528093929190818152602001838380828437600081840152601f19601f82011690508083019250505050505050815260200186868080601f016020809104026020016040519081016040528093929190818152602001838380828437600081840152601f19601f82011690508083019250505050505050815260200184815260200160011515815260200142815260200160011515815250600260008381526020019081526020016000206000820151816000019081610bf19190611985565b506020820151816001019081610c079190611985565b506040820151816002015560608201518160030160006101000a81548160ff0219169083151502179055506080820151816004015560a08201518160050160006101000a81548160ff021916908315150217905550905050807f9888aaf2da5f820c2f87facf66f0ca20a87fdc1f3032692bc15101ed9104a10f8888888888604051610c97959493929190611bc3565b60405180910390a28091505095945050505050565b610cb4610e5c565b6002600082815260200190815260200160002060050160009054906101000a900460ff16610d17576040517f08c379a0000000000000000000000000000000000000000000000000000000008152600401610d0e906115e6565b60405180910390fd5b6002600082815260200190815260200160002060030160009054906101000a900460ff16610d7a576040517f08c379a0000000000000000000000000000000000000000000000000000000008152600401610d7190611c58565b60405180910390fd5b60006002600083815260200190815260200160002060030160006101000a81548160ff021916908315150217905550807fc7617341a832d65c64fb8e1b70f4f079c56080e207cf078cf656309cbb4b5cfd60405160405180910390a250565b610de1610e5c565b600073ffffffffffffffffffffffffffffffffffffffff168173ffffffffffffffffffffffffffffffffffffffff1603610e50576040517f08c379a0000000000000000000000000000000000000000000000000000000008152600401610e4790611cea565b60405180910390fd5b610e5981610eda565b50565b610e64610fc2565b73ffffffffffffffffffffffffffffffffffffffff16610e826107c7565b73ffffffffffffffffffffffffffffffffffffffff1614610ed8576040517f08c379a0000000000000000000000000000000000000000000000000000000008152600401610ecf90611d56565b60405180910390fd5b565b60008060009054906101000a900473ffffffffffffffffffffffffffffffffffffffff169050816000806101000a81548173ffffffffffffffffffffffffffffffffffffffff021916908373ffffffffffffffffffffffffffffffffffffffff1602179055508173ffffffffffffffffffffffffffffffffffffffff168173ffffffffffffffffffffffffffffffffffffffff167f8be0079c531659141344cd1fd0a4f28419497f9722a3daafe3b4186f6b6457e060405160405180910390a35050565b6001816000016000828254019250508190555050565b600081600001549050919050565b600033905090565b6040518060c00160405280606081526020016060815260200160008152602001600015158152602001600081526020016000151581525090565b6040518060a001604052806060815260200160608152602001600015158152602001600081526020016000151581525090565b600080fd5b600080fd5b6000819050919050565b61105481611041565b811461105f57600080fd5b50565b6000813590506110718161104b565b92915050565b6000806040838503121561108e5761108d611037565b5b600061109c85828601611062565b92505060206110ad85828601611062565b9150509250929050565b6000602082840312156110cd576110cc611037565b5b60006110db84828501611062565b91505092915050565b600081519050919050565b600082825260208201905092915050565b60005b8381101561111e578082015181840152602081019050611103565b60008484015250505050565b6000601f19601f8301169050919050565b6000611146826110e4565b61115081856110ef565b9350611160818560208601611100565b6111698161112a565b840191505092915050565b61117d81611041565b82525050565b60008115159050919050565b61119881611183565b82525050565b600060c08301600083015184820360008601526111bb828261113b565b915050602083015184820360208601526111d5828261113b565b91505060408301516111ea6040860182611174565b5060608301516111fd606086018261118f565b5060808301516112106080860182611174565b5060a083015161122360a086018261118f565b508091505092915050565b60006020820190508181036000830152611248818461119e565b905092915050565b600080fd5b600080fd5b600080fd5b60008083601f84011261127557611274611250565b5b8235905067ffffffffffffffff81111561129257611291611255565b5b6020830191508360018202830111156112ae576112ad61125a565b5b9250929050565b6112be81611183565b81146112c957600080fd5b50565b6000813590506112db816112b5565b92915050565b6000806000806000606086880312156112fd576112fc611037565b5b600086013567ffffffffffffffff81111561131b5761131a61103c565b5b6113278882890161125f565b9550955050602086013567ffffffffffffffff81111561134a5761134961103c565b5b6113568882890161125f565b93509350506040611369888289016112cc565b9150509295509295909350565b61137f81611041565b82525050565b600060208201905061139a6000830184611376565b92915050565b600073ffffffffffffffffffffffffffffffffffffffff82169050919050565b60006113cb826113a0565b9050919050565b6113db816113c0565b82525050565b60006020820190506113f660008301846113d2565b92915050565b600060a0830160008301518482036000860152611419828261113b565b91505060208301518482036020860152611433828261113b565b9150506040830151611448604086018261118f565b50606083015161145b6060860182611174565b50608083015161146e608086018261118f565b508091505092915050565b6000602082019050818103600083015261149381846113fc565b905092915050565b6000806000806000606086880312156114b7576114b6611037565b5b600086013567ffffffffffffffff8111156114d5576114d461103c565b5b6114e18882890161125f565b9550955050602086013567ffffffffffffffff8111156115045761150361103c565b5b6115108882890161125f565b9350935050604061152388828901611062565b9150509295509295909350565b611539816113c0565b811461154457600080fd5b50565b60008135905061155681611530565b92915050565b60006020828403121561157257611571611037565b5b600061158084828501611547565b91505092915050565b600082825260208201905092915050565b7f53747564656e7420646f6573206e6f7420657869737400000000000000000000600082015250565b60006115d0601683611589565b91506115db8261159a565b602082019050919050565b600060208201905081810360008301526115ff816115c3565b9050919050565b7f5363686f6f6c20646f6573206e6f742065786973740000000000000000000000600082015250565b600061163c601583611589565b915061164782611606565b602082019050919050565b6000602082019050818103600083015261166b8161162f565b9050919050565b7f4e487b7100000000000000000000000000000000000000000000000000000000600052602260045260246000fd5b600060028204905060018216806116b957607f821691505b6020821081036116cc576116cb611672565b5b50919050565b7f5363686f6f6c206e616d65207265717569726564000000000000000000000000600082015250565b6000611708601483611589565b9150611713826116d2565b602082019050919050565b60006020820190508181036000830152611737816116fb565b9050919050565b7f4c6f636174696f6e207265717569726564000000000000000000000000000000600082015250565b6000611774601183611589565b915061177f8261173e565b602082019050919050565b600060208201905081810360008301526117a381611767565b9050919050565b7f4e487b7100000000000000000000000000000000000000000000000000000000600052604160045260246000fd5b60008190508160005260206000209050919050565b60006020601f8301049050919050565b600082821b905092915050565b60006008830261183b7fffffffffffffffffffffffffffffffffffffffffffffffffffffffffffffffff826117fe565b61184586836117fe565b95508019841693508086168417925050509392505050565b6000819050919050565b600061188261187d61187884611041565b61185d565b611041565b9050919050565b6000819050919050565b61189c83611867565b6118b06118a882611889565b84845461180b565b825550505050565b600090565b6118c56118b8565b6118d0818484611893565b505050565b5b818110156118f4576118e96000826118bd565b6001810190506118d6565b5050565b601f8211156119395761190a816117d9565b611913846117ee565b81016020851015611922578190505b61193661192e856117ee565b8301826118d5565b50505b505050565b600082821c905092915050565b600061195c6000198460080261193e565b1980831691505092915050565b6000611975838361194b565b9150826002028217905092915050565b61198e826110e4565b67ffffffffffffffff8111156119a7576119a66117aa565b5b6119b182546116a1565b6119bc8282856118f8565b600060209050601f8311600181146119ef57600084156119dd578287015190505b6119e78582611969565b865550611a4f565b601f1984166119fd866117d9565b60005b82811015611a2557848901518255600182019150602085019450602081019050611a00565b86831015611a425784890151611a3e601f89168261194b565b8355505b6001600288020188555050505b505050505050565b82818337600083830152505050565b6000611a728385611589565b9350611a7f838584611a57565b611a888361112a565b840190509392505050565b611a9c81611183565b82525050565b60006060820190508181036000830152611abd818789611a66565b90508181036020830152611ad2818587611a66565b9050611ae16040830184611a93565b9695505050505050565b7f53747564656e74206e616d652072657175697265640000000000000000000000600082015250565b6000611b21601583611589565b9150611b2c82611aeb565b602082019050919050565b60006020820190508181036000830152611b5081611b14565b9050919050565b7f53747564656e7420656d61696c20726571756972656400000000000000000000600082015250565b6000611b8d601683611589565b9150611b9882611b57565b602082019050919050565b60006020820190508181036000830152611bbc81611b80565b9050919050565b60006060820190508181036000830152611bde818789611a66565b90508181036020830152611bf3818587611a66565b9050611c026040830184611376565b9695505050505050565b7f53747564656e74206973206e6f7420656e726f6c6c6564000000000000000000600082015250565b6000611c42601783611589565b9150611c4d82611c0c565b602082019050919050565b60006020820190508181036000830152611c7181611c35565b9050919050565b7f4f776e61626c653a206e6577206f776e657220697320746865207a65726f206160008201527f6464726573730000000000000000000000000000000000000000000000000000602082015250565b6000611cd4602683611589565b9150611cdf82611c78565b604082019050919050565b60006020820190508181036000830152611d0381611cc7565b9050919050565b7f4f776e61626c653a2063616c6c6572206973206e6f7420746865206f776e6572600082015250565b6000611d40602083611589565b9150611d4b82611d0a565b602082019050919050565b60006020820190508181036000830152611d6f81611d33565b905091905056fea2646970667358221220131767e226ce77993397fc2088fd1b96cd86747358a1306995cf56f5c6d21b2464736f6c634300081c0033",
  "linkReferences": {},
  "deployedLinkReferences": {}
}